:020000041000EA
:1000000000B5324B212058609868022188439860DF
:10001000D860186158612E4B002199600221596106
:100020000121F02299502B49196001219960352056
:1000300000F044F80222904214D00621196600F024
:1000400034F8196E01211966002018661A6600F04E
:100050002CF8196E196E196E052000F02FF8012189
:100060000842F9D1002199601B49196000215960AB
:100070001A491B48016001219960EB211966A021F2
:10008000196600F012F800219960164914480160C1
:100090000121996001BC002800D000471248134993
:1000A000086003C880F30888084703B5996A0420EC
:1000B0000142FBD001200142F8D103BD02B5186610
:1000C0001866FFF7F2FF186E186E02BD00000240BE
:1000D000000000180000070000035F00212200005C
:1000E000F4000018222000A00001001008ED00E03C
:1000F00000000000000000000000000074B24E7A12
:1001000000200420F7010010C3010010C5010010F9
:10011000C1010010C1010010C1010010C101001097
:10012000C1010010C1010010C1010010C701001081
:10013000C1010010C1010010C9010010CB01001065
:10014000CD010010CD010010CD010010CD01001037
:10015000CD010010CD010010CD010010CD01001027
:10016000CD010010CD010010CD010010CD01001017
:10017000CD010010CD010010CD010010CD01001007
:10018000CD010010CD010010CD010010CD010010F7
:10019000CD010010CD010010CD010010CD010010E7
:1001A000CD010010CD010010CD010010CD010010D7
:1001B000CD010010CD010010CD010010CD010010C7
:1001C00000BE00BE00BE00BE00BE00BEEFF3058054
:1001D000103800BEF2EB88718CB80410A8B8041077
:1001E0003402001090A31AE700201F49086006C8D7
:1001F00081F3088810471D48006800282FD10DA4FE
:100200000ECC002902D000F012F8F9E71849194A7B
:10021000002000E001C19142FCD1174988471749ED
:1002200088471749884700BEFDE701C901C29A42C5
:10023000FBD37047A8B80410C0000020740C002045
:100240007CC4041000000420000004207CC40410BE
:10025000001004200010042000000000704709482E
:1002600002F0D6FB0047000008ED00E0000000D0DF
:10027000980C0020C8BE00204DD900104D0700107A
:1002800011D900105756000006005250ABB360530E
:100290008E3B011006005250861C03029B3B01104E
:1002A000060052505422A29DA43B0110050052505A
:1002B000DE65F4687CC40410F8B5C046044B10B584
:1002C000002B03D00349044800E000BF10BDC04626
:1002D00000000000FC2100201002011000487047BF
:1002E000574F544143688020C000834204D8002007
:1002F00008600248136070470148FCE74F4B4F4BC2
:100300004552522109C80343180010B50324204068
:10031000234203D108601060014810BD0148FCE78A
:100320004F4B4F4B4552522110B5FFF7EBFF10BD1D
:1003300030B503680B4CA34211D981244068640591
:100340001D18A5420BD20343DBB2002B07D180243A
:10035000E400A04203D808600348136030BD03489E
:10036000FCE7C046FFAF05104F4B4F4B45525221A3
:10037000074B08481360084B536080235B01936070
:1003800080235B00D3608023DB0013617047C0468D
:1003900000B005104F4B4F4B00501A00002302488D
:1003A0000B6013607047C0464F4B4F4B020010B5B7
:1003B00006CA18000EF046FF004810BD4F4B4F4BC9
:1003C00007B502236A46137003686946054801931E
:1003D00002F0DCF943425841034B40421840034BC2
:1003E000C0180EBD84210020F60603D64F4B4F4B9C
:1003F00013B508220400002168460EF01DFF6A466E
:1004000001231370236869465A1E93416A460648C1
:10041000137102F0BBF943425841044B404218406B
:10042000034BC01816BDC04684210020F60603D633
:100430004F4B4F4B10B50C2805D9C321044B054A2F
:1004400005480DF069FAC3020448184310BDC046C0
:1004500010020110B03B01102D02011019801F0085
:10046000054B1868EFF3108272B601680029FCD0C2
:10047000BFF35F8F5A6070471C13002070B5114B9B
:1004800004689C421CD9812345685B0562199A4225
:1004900016D223002B431B051E0D002B10D1FFF796
:1004A000DFFFF0231B06E01829000FF081FE064B4A
:1004B0000CCBBFF35F8F166083F31088034870BDC9
:1004C0000348FCE7FF9F05101C1300204F4B4F4BC8
:1004D00045525221F0B5036885B0476801201500E8
:1004E000009302F067FA0400FFF7A4FF2C2398435F
:1004F0001E4BA0260343019387230022F605DB0051
:10050000F2501B4BA201D018802380219B01034392
:10051000090419601E21174B92191B68BF089C46DD
:1005200063001940E223FF330B4361464B40DB0578
:100530001149DB0D0B60009B136003AB5360019B03
:100540009760D36080235B040268110019401A424F
:10055000FAD10A4B2000F15002F022FA8723DB0087
:10056000F35807482B6005B0F0BDC0461800800066
:1005700010000050340400503414005034040000C3
:100580004F4B4F4BF0B5060085B00120019102F0B2
:1005900011FA0400FFF74EFF2C239843214BA021B2
:1005A0000343009301228723C905DB005242CA504E
:1005B0001D4BA201D718802380209B013B430004E0
:1005C00018601E20194B52181B689C466300184087
:1005D0002123034360464340DB051548DB0D0360E0
:1005E000144BC858844680206546C0002843C85034
:1005F00001981660850803A8506000989560D06047
:10060000802252043868060016401042FAD1872230
:10061000D2008D582000CE5002F0C2F9E84305B058
:10062000F0BDC04618008000100000503404005097
:10063000341400503404000010B503C81400FFF750
:10064000A1FF2060004810BD4F4B4F4B70B50568AF
:10065000040041682800FFF795FFA268030000200E
:100660009A420ED180232A689B059A4209D36A6870
:1006700023689A4205D361685B189A4201D8013019
:10068000104070BD30B50500C1B0F422002103A8B0
:100690000EF0D2FDAA682C68029203226B680094C7
:1006A0000193E4B213401C4302D0144841B030BD62
:1006B0006846FFF7CBFF0028F7D0FFF7D1FE802177
:1006C000B4204901C0020FF073FD8022B4206946B6
:1006D0005200C0020FF054FD094B0CCBBFF35F8FEB
:1006E000146083F3108880226846064952000FF098
:1006F0005DFA0028D9D10448D8E7C04645525221B6
:100700001C13002000A005104F4B4F4BF8B5C0C87C
:100710000D001400FFF7A4FEF0231B063A00F018AA
:1007200029000FF02DFD074B0CCBBFF35F8F00218D
:10073000116083F3108839003000FFF723FF206039
:100740000148F8BD1C1300204F4B4F4BF0B50F2054
:100750008DB000F09DFD002201210F2000F00AFD68
:10076000D024802324061B020A20A36201F08AFC05
:10077000544A5549106A0023884204D1536A534AA7
:100780009B185A425341626812041FD5002B1DD199
:100790004F4C2000FFF75AFF002817D001204D4989
:1007A00023680A6882430A6001224B495242CA67A1
:1007B000C0214A4849004250494A4A4911604A49C1
:1007C0005A688B601B6883F30888104700F0A0FC10
:1007D0000822464D03001100280001F0C6FF0AF070
:1007E00003F900286BD109F0F7FF41494148424B1A
:1007F000424A096800680AF0C1F8041E5FD1404807
:1008000001F056F802A802003E4BC2CBC2C2C2CBD6
:10081000C2C2C2CBC2C21B680A2113603A4A00F0AE
:1008200097FA21000822060068460EF005FD032312
:100830006A4669462800137001F0B2FF0134694628
:10084000280001F0A8FF002805D10AF017F80520BC
:1008500001F018FCF3E76B461B78022B12D0032B38
:100860000BD0012BEBD1300000F0DAF90AF0A6F83A
:100870006B4618790EF01EFEE1E73000234900F0C8
:1008800035FADCE7300000F0CBF90AF097F8114AAE
:1008900012491368A343136001230F4A5B42D367D5
:1008A000C02252008B500E4B0E4A0F491A60019B1A
:1008B0005A688B601B6883F308881047BFE70120E4
:1008C0000DB0F0BD008005400DF005B10EF005B192
:1008D00000A0051010E000E004E100E000E100E00D
:1008E00000E00040BFEDFBFF00ED00E084210020B0
:1008F0001406002018060020307500000400400097
:100900001C130020083C011053594E439210000064
:1009100000207047030007225A718522002010B57D
:10092000D20098600100985209F098FF10BD002194
:1009300010B50400080009F091FF07236371A36854
:10094000181E1FD0002103F013FE0022A068110022
:1009500003F044FE0021A06803F01CFE0021A06803
:1009600003F00AFEA068002103F022FEA06804F054
:100970002FF9002804D0A06803F06AFF0D20404240
:100980000023A36010BD000070B5040015000CF03A
:10099000E9FE0E4AA35AAB4203D22000FFF7C7FF7D
:1009A00009E05B1B9BB2A352094AA15A6D18A552DC
:1009B000002B01D0002070BD6379052BEDD1012300
:1009C000637185230422DB00E252F3E72C0400006C
:1009D0002A040000062310B543710023074A084982
:1009E0008352042242520749C160010080680C31E1
:1009F00006F080F8431E9841404210BD2A040000D2
:100A00002C04000045525221F8B50500194E04008F
:100A100082590C351769002F11D093685168013342
:100A2000013110309B008900EB1802006918B847AB
:100A3000114B984204D12000FFF7CCFFF8BD0F48BE
:100A40000523637100230E4AE060A352A259A068F7
:100A500091688622D200A2580131890052180949B2
:100A600092B26252290006F045F8431E9841404276
:100A7000E4E7C04634040000455252214F4B4F4B2F
:100A80002A0400002C0400000022114B13B5C358A7
:100A90000400DB68019293420CD08622D2008218B7
:100AA00001A9103098470B4B984203D12000FFF763
:100AB00091FF16BD0322627185220020019BD200A6
:100AC000A3528342F5D12000FFF79EFFF1E7C04615
:100AD000340400004552522170B587250022124B84
:100AE000C468C158ED008A4209D100230F4A8350DF
:100AF000002B0CD1FFF76EFF0300180070BD4359A7
:100B00009600F3581E68B442F0D00132EBE702229F
:100B100042715A6885239100DB00C15200239A423A
:100B2000EBD1FFF7B1FFE7E73C040000340400001D
:100B3000F7B5040001910092002A03D12000FFF7CD
:100B4000F6FEFEBD0CF00EFE009B1889002852D068
:100B50008323314EDB00A25B991A884206D920001C
:100B6000FFF738FF0028E9D10020EAE72B4FE15BCF
:100B70008D185B1B25000C35984205D92800691893
:100B80000FF036F80023E353009BA15B1A89E35B67
:100B9000009859186918002303F006FA009B010019
:100BA0001B899842CAD1A35BC318A353019803F0D1
:100BB00085FC8523DB00E55AA35BAB421BD3607940
:100BC0000328BBD80FF00CFB021B1F238823DB007C
:100BD000E258E36820009A4212D0FFF7FBFE00289B
:100BE000ACD1E35BEB18E353A35B5B1B9BB2A3535A
:100BF000002BDED1E053009803F002F8B4E72000A8
:100C0000FFF76AFFEBE72000FFF73EFFE7E7200072
:100C1000FFF7FAFEE3E7C0462604000024040000C4
:100C200010B50400FFF783FE011E20680DD00028D8
:100C300009D0002103F09CFC206803F009FE00238A
:100C40000D2123604942080010BD0028FBD003F0AD
:100C50008FFC206803F0BCFF011E04D0206803F065
:100C6000F7FD0D21494200232360ECE770B5050034
:100C70000C00161E01D1002908D12800FFF7D0FF73
:100C8000012306262B717642300070BD8368002B4D
:100C900004D0080003F0DCFD0D26F4E781600100BC
:100CA000200003F065FC3000012109F0D7FD852309
:100CB0000422DB0020006E710849EA5203F06AFC4E
:100CC0002000074903F058FC20000A22054903F0E0
:100CD00085FC2000044903F06BFCD5E7890900106E
:100CE000310B00101109001015090010F7B500278D
:100CF000050007712E200C0003F0C2FE0600B8426A
:100D000020D03900220003F007FB6B460400DF1DF2
:100D10003870002806D0300003F09AFD00243C57BC
:100D20002000FEBD3A000121300003F041FB2860A5
:100D30000028F3D0290003F01BFC0449286803F0C5
:100D400045FCEDE701246442EAE7C0466D0C001063
:100D500070B504000E000120134915000EF056FA7C
:100D60000023002814D170BD9A00A25851680529AB
:100D700005D90E4B0E4A0F480F490CF0CDFD926875
:100D8000052A04D90D4B0A4A0A480D49F5E70133F3
:100D9000B342E9D18722D20084500A4A8350882383
:100DA000DB00C550DFE7C04644040000910201109B
:100DB000303C0110B10201101602000001030110C5
:100DC000170200003C04000010B5052000F0F8F800
:100DD000014B186010BDC046C80D002010B5FFF7CC
:100DE000F3FF10BDF0B585B003920A9A05000F001D
:100DF000934205D22D21304B304A31480CF08CFD06
:100E00000C241A0E1B02029201930A9A00230198E5
:100E100002990DF02DFE6C432A4B0600E41863681E
:100E2000834200D260602B1FDBB20093C023009A84
:100E30009B012343012A30D8012F2ED103221A60AF
:100E4000A3683B42FCD0039B22685B015340E02235
:100E500013408022520122431360009B012B09D8CA
:100E6000032123687B400B4013600123BB40A26831
:100E70001342FCD0802380229B01234312011A607D
:100E8000019866603200002302990DF0F1FD0E4CCE
:100E9000AD006051012005B0F0BD802212011A6042
:100EA000094BAA00D1580029CDD058690DF0A2FDF8
:100EB00001300138FDD1C6E7260301103D3C011089
:100EC0003703011000800040F412002073B50C209D
:100ED00001F0ECFC00F07AF800280AD000232C4A3C
:100EE0002C489900013350500A2BFAD12A4B5362F7
:100EF00073BD2A4DA86701F03FFD0122284B1A60FF
:100F00006B6C012BFCD10322264B1A60AC6B012CBD
:100F1000FCD102250526210000950623224A2348FC
:100F200001F044FC33002100214A2248009601F0E0
:100F30003DFC214B2900214D009300220420FFF7A6
:100F400051FF2B002100002230000095FFF74AFFDF
:100F50000022104C1100230000940720FFF742FFED
:100F600000222300110000940820FFF73BFF00221D
:100F7000094B1100009309202300FFF733FF0022E3
:100F80002B00110000950620FFF72CFFB0E7C046AC
:100F9000F4120020006CDC021BB70000008000404F
:100FA0003CB0004030B00040002F68590080024043
:100FB000008C864700C00240001BB70040597307F1
:100FC000014B8000C0587047F4120020024B186893
:100FD0008007C00F7047C04600C00640EFF3108086
:100FE00072B6034A1368002BFCD0BFF35F8F7047C3
:100FF0002C0100D0BFF35F8F0022024B1A6080F3F8
:10100000108870472C0100D00722CB08C35C012058
:10101000114088401840431E9841C0B27047F8B54F
:1010200005000C001700FFF7D9FF2100060028007B
:10103000FFF7EAFF002803D0210038000CF0FEFC87
:101040000723E2081C40063BA340A95C30000B4389
:10105000AB54FFF7CFFFF8BDF7B505000E00140045
:101060001F00FFF7BBFF0190BC4202D9012464427C
:101070000DE021002800FFF7C7FF002811D107224B
:10108000012322409340E1086A5C13436B540198AA
:10109000FFF7B0FF002C06DA002E04D008980CF001
:1010A000CDFC0134E0E72000FEBD000070B5050076
:1010B0000C00FFF793FF210006002800FFF7A4FFB4
:1010C000002805D13321084B084A09480CF024FCBC
:1010D00007230122E1081C40A2406B5C30009343CF
:1010E0006B54FFF787FF70BD730301104D3C011077
:1010F000920301100021044B044ABFF35F8F02C327
:101100009342FAD17047C046000100D0800100D060
:10111000044A1078431CDBB2172B00D9102313703C
:101120007047C0461C06002013B5054B054C010056
:10113000009318221F232000FFF78EFF16BDC04624
:10114000CC030110F0120020084B8200D21840237B
:1011500010B51468C0006340C0242340802464019B
:1011600022431360024BC018416010BD04C001400F
:1011700000400140074B8000C0180368C90092007E
:101180000A435A400C231A4080235B0103431A6030
:101190007047C04604C00140054B8000C0180222C1
:1011A0008023002900D1C0239B0103431A607047AC
:1011B00004C00140D0231B061B6870B5084D9B007E
:1011C0005C59204205D0CC21064B074A07480CF059
:1011D000A3FB04430D205C5100F006F970BDC0462E
:1011E00024220020E70301107F3C011013040110AA
:1011F00070B5D026360633680A4D9B005B59040053
:10120000034205D1D621084B084A09480CF084FB5B
:101210000D2000F0CBF933689B005A59A2435A5174
:1012200070BDC046242200204B0401105C3C01101C
:10123000130401100722C308104080008140024AB5
:101240003C339B009950704700400140F8B5D023D3
:101250001B061C68050063425C412F2364429C43CB
:101260000A4B0F00E4181600FFF7E4FF07232B409A
:10127000ED089B00AD009F4064198023002E00D133
:10128000C0239B0123431F60F8BDC046304101408D
:101290000123D022834010B5120693620521936189
:1012A000FFF752FF10BD0000074B10309B68800015
:1012B000C150BFF35F8FBFF35F8F0021034B1960F5
:1012C00082F310887047C04600ED00E0240100D092
:1012D000038810B5DA0A1C2A05D0B121044B054A4F
:1012E00005480CF019FB5B051B150433C01810BD35
:1012F00074040110033D0110890401100A4B091AFE
:10130000CA180A4B10B5081F9A4201D8C90705D55B
:10131000A321074B074A08480CF0FEFAE02300051A
:10132000400D1B02184310BDFC070000FE0F00001B
:10133000BF040110F73C0110890401100122824012
:10134000034B1B6813405A1E9341D8B27047C046E6
:1013500000E100E0002904D0034B1860034B186043
:101360007047034BFBE7C04680E200E000E100E08D
:1013700080E100E00123834010B51800FFF7EAFF89
:1013800010BD0000024B10309B688000C0587047B1
:1013900000ED00E070B504000D00EFF3108672B6AA
:1013A0000C4A1368002BFCD0BFF35F8F2000FFF7BF
:1013B000E9FF094B984207D0A84205D08621074B88
:1013C000074A08480CF0A8FA320029002000FFF76D
:1013D0006BFF70BD240100D0CD010010EF0401109F
:1013E000293D011089040110F0B589B006900591DE
:1013F0000492EFF31083079372B6594A1368002BD7
:10140000FCD0BFF35F8F0022564B9A560192002A00
:1014100005DAD721544B554A55480CF07DFA0C2279
:10142000019F544957437D180291A9791970524B75
:101430009968069B10339B005C58029BE11A2F2988
:101440001CD94E4B9C4204D0DE214D4B474A4848A4
:10145000E3E7029BB81CC0184A49FFF74FFF4A4B0D
:10146000029A6880BB52494BAB80FF23AB71049B4F
:10147000EB71059BAB6001242C4368E0444B0139C0
:101480004B430221CB4143498B4204D9EA21424BD1
:10149000364A3748C1E70123210099430B00002653
:1014A0000391D9790498814224D8002E2CD1314C53
:1014B000B81C34490019FFF721FF0600381D0399B5
:1014C0000019FFF71BFF354B039A121B5241534380
:1014D0001B0D0C2201994A432B491153A418A371E7
:1014E000049B039AE371059B6680A3602C4BA0804C
:1014F0001360C0E706215956002904DB51431E0042
:10150000029B5B18CDE71E000623F3560293002BC7
:1015100024DB301DFFF7DCFE010022483818FFF7FE
:10152000EDFE07002900301DFFF7E8FE019B019A40
:10153000B3710C2353430F4AB0809B18184A9F8005
:101540001A60029A9A71049ADA71059A9A602100D7
:10155000079A0698FFF7A8FE09B0F0BD124FE1E721
:10156000240100D07525002025050110123D011031
:10157000890401102006002000ED00E0CD010010DC
:101580004A0501105006002000A1FFFF01BDFFFF2A
:10159000ABAAAAAA5555551571050110AAAA0000B3
:1015A000014880472406002001BD0000F0B585B049
:1015B00001900F00EFF31083029372B64C4A136848
:1015C000002BFCD0BFF35F8F4A4B019C9B6810340B
:1015D000A200D658484B9E4266D0BE4200D180E061
:1015E000464BF31A2F2B5FD80198FFF7A7FE002177
:1015F00003900198FFF7BEFEBFF35F8FEFF3058204
:10160000002A07D0944205D036213D4B3D4A3E4842
:10161000FF315EE00123340038499C430C20002355
:101620008C460625A1686557B94214D1002D19DAF8
:10163000002A44D1002B40D0FF329A71334A9A805D
:1016400033492E4A0B78A371324BA41A6441634389
:101650001B0D0B7024E0002D45DB454323002C00BF
:101660006444DEE70C206843244F3B189A68A2606C
:10167000DA79E2719B795BB2A371002B1BDB04303A
:10168000C019FFF725FE231D01001800FFF736FEE5
:101690000C236B43FF181E4BA0801A781D70BA7183
:1016A00003990198FFF766FE3100029A0198FFF74F
:1016B000FBFD05B0F0BD1848EAE70F4EC0E7174B39
:1016C0001B1B083B5A081B0B05D0AB21144B154ABA
:1016D0000D480CF021F9144BA380144B1343E38005
:1016E000DEE71E00E0E76A21114B064A06488FE755
:1016F000240100D000ED00E0CD0100102006002004
:10170000E3050110E43C01108904011001BDFFFF55
:1017100075250020AAAA000001BD00005A0600207D
:1017200015060110CD3C011000F0FFFF00F8FFFF8F
:1017300025060110F8B501242A4B0443E21A2F2A8A
:1017400006D9C721284B294A294849000CF0E4F85A
:10175000EFF30582002A05D19221264B234A244823
:10176000FF31F3E7EFF3108772B6234909680029C8
:10177000FBD0BFF35F8F21490600F61A7641714313
:10178000090D1F4E49B28C46B168920089580D0070
:101790000021A5420FD1B3681A4999501A4B1A7803
:1017A000827162461A70BFF35F8F0023124A136082
:1017B00087F31088F8BD06229A56624508D10C239B
:1017C0004B43084AD318FF229A71104A9A80E5E7E2
:1017D00001310C330429EED10D4B044A04489F31EA
:1017E000BEE7C046200600202B060110B33C0110C6
:1017F0008904011053060110240100D0AAAA000098
:1018000000ED00E0CD0100107525002001BDFFFFB7
:101810005D060110054B064A1360064A13605360CB
:101820009360D360136153619361704780808080BF
:1018300000E400E004E400E070B504000E001500D0
:10184000FFF766FC0100200000F006F8A680E580A6
:10185000BFF35F8F70BD0000024BC91889000160A3
:101860007047C0464000003410B50400FFF750FC3C
:1018700001002000FFF7F0FFFF232371BFF35F8F0C
:1018800010BD10B50400FFF743FC01002000FFF776
:10189000E3FFFF23A380BFF35F8F10BD034BC91885
:1018A00089000160BFF35F8F7047C046400000347D
:1018B00010B504000120FFF737FC01002000FFF7FE
:1018C000EDFF10BD30B5084D03006C6A0122002009
:1018D0008C4206D3AD6A10009D4202D2081B431E03
:1018E0009841104030BDC0460040054070B50C0026
:1018F0000500080000F020FD2000094900F05AFC16
:10190000FFF706FC074B2C75C018D0231B061B687D
:1019100080006B75044BA4006860E55070BDC04644
:10192000B91B001040000034142200200A4B186834
:10193000EFF3108272B601680029FCD0BFF35F8F0D
:101940001B68BFF35F8F0021196082F3108840BFCE
:10195000002000217047C0464024002010B5002917
:1019600003D003681B7B8B4205D23C21054B064A02
:1019700006480BF0D1FF064B8068C91809014018D2
:1019800010BDC046E2060110163E0110040701100A
:10199000FFFFFF0FF8B517000600FFF7DFFF390064
:1019A000056844683000FFF7D9FF42680123A2426E
:1019B00004D802D10268AA4200D80023D8B2F8BDE8
:1019C0003F2110B5024B034A03480BF0A5FFC04668
:1019D00034070110E73D01104F07011010B5040056
:1019E00000F0D0FB002901DAFFF7EAFF2060616018
:1019F000200010BD0B0010B5002902D0027B8A42E6
:101A000005D26821054B064A06480BF085FF0321E5
:101A1000594300680339401810BDC0468D070110B6
:101A2000C63D0110A907011010B5427B01238A426F
:101A300004D0FFF7DFFF83785A1E9341180010BDD2
:101A4000F8B507000D001400FFF7D4FF0600002DC5
:101A500005D16F210E4B0F4A0F480BF05DFF002C94
:101A600004D170210D4B0B4A0B48F6E7A54204D177
:101A700071210B4B074A0848EFE721003800FFF7B8
:101A8000B9FF85703378002B00D043703470F8BDF7
:101A9000EC070110B43D0110A90701100308011063
:101AA000F6070110F0B585B002930CAB1C780DABB6
:101AB0001B780700056801920393002C0BD02100CE
:101AC0002800FFF7B1FF002815D067212B4B2C4AC7
:101AD0002C480BF021FFAC7B002C44D021002800C7
:101AE000FFF788FF4378AB73002B00D1EB73002323
:101AF00083704370037021003800FFF72FFF019BB4
:101B000021000360029B43600A9B83600B9BC360C0
:101B10002800FFF76FFF00238370437003706E7B14
:101B20009E4228D0220031006B68A86898470028A0
:101B30001CD0220031002800FFF782FF6E73A642FE
:101B400011D1387D019A029B00F082FB051E06D060
:101B5000039B002B03D12100386800F01DFD0E9B74
:101B6000002B00D01D70200005B0F0BD3200210018
:101B70002800FFF765FF6C73E3E7C0460C0801100F
:101B8000D23D01100407011010B5002903D00368ED
:101B90001B7B8B4205D24121044B054A05480BF0C3
:101BA000BBFEC0680139401810BDC046E2060110F6
:101BB000953D0110040701100023F0B593B009937F
:101BC0007A4B8200D5580E9010A8FFF707FF109BA4
:101BD000119C6A680A930B94EFF31083069372B614
:101BE0001368002BFCD0BFF35F8F2F687C7B002C29
:101BF0006AD021002800FFF7B1FE026843680600A2
:101C00000A980B99121A8B41002B51DC01D1002A42
:101C10004ED10021380000F0B5FCA04205D08E2145
:101C2000634B644A64480BF077FEB76832687368A8
:101C3000F6680C920D93002F04D192215F4B5D4A00
:101C40005D48F0E721002800FFF79EFF03780020A1
:101C500009931B0223432B616B68BFF35F8F002244
:101C60001A60069B83F31088974200D198E0099B85
:101C700031001B02234318000A93B84706900791CE
:101C80006A68EFF310830F9372B61368002BFCD0D1
:101C9000BFF35F8F079B002B3FDA2B69002B55D0DA
:101CA0000A9A934218D0A121454B424A4248BAE7CA
:101CB000326873680E9800F0CBFA002600220023E9
:101CC00037000C920D93C7E700220023260027005F
:101CD00020000C920D93BFE70C9A0D9B0698079974
:101CE000121A8B41802109068B4202D30122354B07
:101CF000524200210491013128000391029401967F
:101D00000097FFF7CFFE00236A682B61BFF35F8F58
:101D100013600F9B83F3108856E7069B079A1343C3
:101D200014D02B69002B11D00A9A934204D0A4211D
:101D3000234B204A204876E710A8FFF74FFE109A61
:101D4000119B0698079912184B41CBE72E68002C7F
:101D500004D1F6211C4B1D4A1D4864E721003000C8
:101D6000FFF762FE0028F4D1F77B002F04D0390082
:101D70003000FFF73FFE4470B37B002B07D1002FEC
:101D800004D0FB21134B114A11484CE7B4732100D6
:101D90002800F473FFF7F8FE037801330370B2E70D
:101DA000002800D010E713B0F0BDC0461422002078
:101DB00034080110FC3D011004070110DE1601106B
:101DC0004A080110FFFFFF7F86080110A73D0110A0
:101DD000A9070110A808011010B50B4C6368002B6F
:101DE0000CD110212300094A206800F045FB032094
:101DF00000F0BCF903212000FFF778FD0A21044818
:101E0000FFF72AFD10BDC046680600209519001096
:101E100040240020054810B54368002B05D15E2101
:101E2000034B044A04480BF077FD10BD6806002000
:101E3000BC0801107E3D011004070110F0B51D0023
:101E400027238DB0140002AA9B18002214A9097838
:101E5000069007911A70069B5A68EFF3108772B6C6
:101E60001368002BFCD0BFF35F8F272302AA9B18B7
:101E70000493002303930293139B22000193129B6C
:101E8000069800932B00FFF70DFE06000020864207
:101E900004D031000698FFF777FE0078069B5B6858
:101EA000BFF35F8F00221A6087F3108896422AD012
:101EB000272302AA9B181B78002B03D10002304372
:101EC0000DB0F0BD079B002B01D10020F8E7129B5D
:101ED00000201399984703000B43F6D006000F002B
:101EE000A41BBD41002906DB08A8FFF777FD089C6D
:101EF000099DA4197D4180231B06AB42ABD8012468
:101F0000024D6442A7E701204042D9E7FFFFFF7F6F
:101F1000F7B505000C004268EFF3108772B613683E
:101F2000002BFCD0BFF35F8F2B68E6B218003100A6
:101F30000193FFF779FD2B6900281DD0A34206D13C
:101F40009521134B134A144849000BF0E5FC31006E
:101F50002800FFF719FE240A0378E4B2A3420ED149
:101F60003100019800F018FB002809D132210B4BF9
:101F7000084A0948FF31E8E7A34200D12861002060
:101F80006B68BFF35F8F00221A6087F31088FEBD75
:101F9000DD080110663D0110040701100109011060
:101FA000F0B5EFF3058306000F0087B0002B02D0D9
:101FB00026480BF043FD06246442E517A4197D4131
:101FC0008D4206D801D1844203D8002D03DAFFF7F1
:101FD000F7FC0024002504A8FFF700FD049A059BE8
:101FE00020002900801A9941002908DC01D100282D
:101FF00005D13000390000F0CFF807B0F0BDFFF791
:1020000009FF002302930193114B220000932B0040
:10201000FFF714FF0028ECDB20002900FFF752FC3B
:102020000028E6D10B4B1868EFF3108272B60168F6
:102030000029FCD0BFF35F8F1B68BFF35F8F0021C7
:10204000196082F3108820BFE6E7C046040901103A
:102050002D1900104024002037B50D0004006846FB
:10206000FFF7BCFC009801998023001969411B0609
:10207000994202D3012002494042FFF791FF37BD48
:10208000FFFFFF7FFA2210B50023920000210DF020
:1020900043F8FFF7E1FF10BD7FB5EFF305860500BC
:1020A0000C00002E05D028002100FFF70BFC04B027
:1020B00070BDFFF7AFFE084B0296019600932A0011
:1020C0002300FFF7BBFE061EEDDD20BFFFF7A2FEDB
:1020D0003100FFF71DFFE6E72D190010F7B5EFF30C
:1020E0000583180001931038EFF3108772B6184B70
:1020F0001B68002BFBD0BFF35F8F012632008240AC
:10210000144B154D154C6A631A6023781900C140B1
:1021100031421AD0696A124D86007559A9420ED310
:10212000104D934375592370BFF35F8F0023084A06
:10213000136087F310889D4200D0A847F7BD019B2C
:10214000094A9B009B181A681A600025ECE7C046F4
:10215000280100D03C70054000400540C4BE00206E
:1021600044240020E0100020D03F054010B5034B70
:1021700001001800024AFEF752FF10BD252500207D
:1021800051090110034B596A0A00986A596A8A4238
:10219000FAD1704700400540054B5A6A8A42FCD389
:1021A0008A4202D19A6A824200D370475A6AF7E79C
:1021B00000400540F0B5040085B00D00EFF3108736
:1021C00072B61E4E3368002BFCD0BFF35F8F1C4BE2
:1021D00001931C4B0293A3000393002D1CD02000FD
:1021E000FFF7D0F8019B83420BD019002000FFF7C6
:1021F000D1F801212000FFF7BDF80123A340124AC6
:102200001360029B039A9D50BFF35F8F00233360DE
:1022100087F3108805B0F0BD0121A140029BA20008
:102220009D500A4B20001A788A4301991A70FFF7D3
:10223000BDF929002000FFF79DF8E5E7280100D04F
:10224000DD200010E010002038600540C4BE0020F2
:10225000F0B589B0069306000592FFF793FF059B42
:102260000493069B00938B4203D853D1049B834273
:1022700050D9EFF31083079372B6274F3B68002BBA
:10228000FCD0BFF35F8F0124B440244B244D029354
:102290001B78069901932343DBB20393039A029BB5
:1022A0001A70059A331D9B006C635A511D4BB20086
:1022B000D1502B6A234212D12B6C234209D000202B
:1022C000BFF35F8F00233B60079B83F3108809B047
:1022D000F0BDC521144B154A15480BF01DFBFFF747
:1022E00051FF009B8B42EAD802D1049B8342E6D87F
:1022F000039B019A93420BD01F23012233409A4043
:1023000013000C4A2C626C631360029B019A1A70D2
:102310000120D5E70120DAE7280100D0C4BE002063
:10232000004005404424002073090110283E01109C
:102330009409011080E200E010B5EFF3108472B64A
:102340000A490B68002BFCD0BFF35F8F0123834049
:10235000074A0848136202789A430270BFF35F8FFE
:1023600000230B6084F3108810BDC046280100D004
:1023700000400540C4BE00200B0010B5002902D06B
:10238000027B8A4205D26821054B064A06480BF0BB
:10239000C3FA0321594300680339401810BDC046F1
:1023A0008D0701107F3E0110A9070110F8B5070045
:1023B0000D001400FFF7E0FF0600002D05D16F218E
:1023C0000E4B0F4A0F480BF0A7FA002C04D17021D6
:1023D0000D4B0B4A0B48F6E7A54204D171210B4B7C
:1023E000074A0848EFE721003800FFF7C5FF85706E
:1023F0003378002B00D043703470F8BDEC07011027
:102400006D3E0110A907011003080110F607011025
:1024100070B506000D00140000290CD0002A09D068
:10242000436880689847002807D0220029003000C0
:10243000FFF7BCFF2C00200070BD2A0021003000F7
:10244000FFF7B4FFF7E770B5002301240500067B12
:1024500043738473C673A64206D831002800FFF781
:102460008BFF0023437070BD21002800FFF784FF1D
:102470000134E4B24470EEE710B50173426083604A
:10248000FFF7E1FF10BDF7B505000C1E21D0FFF7E7
:1024900073FF4678002E1CD031002800FFF76CFF38
:1024A000002743782100477028000193FFF764FF5D
:1024B0003200210047702800FFF7AAFF01990400AD
:1024C0002800FFF7E0FF210002002800FFF7A0FF2F
:1024D00004002000FEBD0000F8B504000D00170048
:1024E000002905D13821214B214A22480BF014FA4A
:1024F000FFF742FF4378002B04D03A211E4B1C4AC1
:102500001C48F3E78378002B04D03B211B4B184A6F
:102510001848EBE701782000FFF7B5FF0600002F11
:1025200013D0E77B002F04D039002000FFF724FFF1
:102530004570A37B002B07D1002F04D04221104B04
:102540000B4A0C48D2E7A573E573002E05D0310085
:102550002000FFF711FF0023837029002000FFF700
:102560000BFF002343703000F8BDC0465E0A011027
:102570005A3E0110CE090110FF090110240A011072
:10258000A808011070B5457B0A0029000400FFF778
:10259000A3FF6073280070BD70B504000D1E3DD010
:1025A000437B8B4204D10121FFF7ECFF012070BD7A
:1025B000FFF7E2FE0600817800208142F7D020007C
:1025C000FFF7DAFE0178A94212D173780370002375
:1025D000012229002000B3707370FFF77DFF617B3B
:1025E0000200814215D171210D4B0E4A0E480EE0BA
:1025F0002000FFF7C1FE4178A94202D173784370F1
:10260000E5E70029F4D1094B064A07486B310BF086
:1026100083F92000FFF7FCFE6073C7E70800C6E7F8
:10262000480A0110423E0110CE0901105D0601105A
:10263000038902004089181A02D5D3890133C018D2
:102640007047000010B5C3898B4205D21921054B94
:10265000054A06480BF060F98389406859434018E1
:1026600010BDC046660A01108B3E0110800A0110A1
:10267000F7B504001500002701912268EFF31086DA
:1026800072B61368002BFCD0BFF35F8F2000FFF7FA
:10269000CFFFE38998421AD021892000FFF7D2FFAB
:1026A000A28901990CF0CEFD2389E28901339BB206
:1026B0009A4200D2002323812368BFF35F8F002258
:1026C0001A6086F3108840BF01252800FEBD2368EC
:1026D000002D06D0BFF35F8F1F6086F3108820BFE8
:1026E000CBE7BFF35F8F1D6086F31088EDE7F8B589
:1026F00004000F0016002268EFF3108572B613680D
:10270000002BFCD0BFF35F8F2000FFF791FF002864
:102710001BD061892000FFF795FFA28901003800D6
:102720000CF090FD6389E28901339BB29A4200D29A
:10273000002363812368BFF35F8F00221A6085F353
:10274000108840BF01263000F8BD2368002E06D057
:10275000BFF35F8F186085F3108820BFCBE7BFF30E
:102760005F8F1E6085F31088EDE770B516000D00D1
:1027700019000400FFF770F82900701C0CF046FDEA
:102780000023E681A5816060A36070BD10B50022C2
:10279000FFF76EFF10BD10B50022FFF7A8FF10BDB8
:1027A00010B50122FFF764FF10BD0000F8B5170057
:1027B00004000C201E000D000CF01CF92F4BFA1821
:1027C0002F4B9A4205D911212E4B2F4A2F480BF03F
:1027D000A3F82F49414338000CF00CF9020098236C
:1027E000103A5B009A4204D919212A4B264A2748FD
:1027F000EDE7731E062B03D8069B013B062B04D97D
:102800001C21254B204A2148E1E7069B32041E0388
:1028100023681643002B0FDA3F2223681340AB4294
:102820000AD1A3681B051B0D834205D1EE22E36884
:10283000D2021340B34220D0184B1949E3185A1E54
:10284000934180225B421B0B92011B039B18154A8C
:102850001360154A13601F008A689743FBD1C02399
:10286000221D9B01134321222560A0601A6022686B
:10287000002AFCDA0822E6601A60F8BD80E84BD333
:1028800080F8A932B10A0110973E0110100B011017
:1028900040420F00460B0110620B01100040FDBFCB
:1028A00000C0004000E0004000F000408023024AE9
:1028B0009B000343D362704700800540024B1A68B7
:1028C000024B5A607047C046C82100200080054076
:1028D00003008020114AC00510B5114C106011484A
:1028E0000460E020104CC004002906D02060002BBA
:1028F00005D180231B06236010BD1060F7E7FA2086
:10290000C00058438023094A5B04984200D308481A
:102910001060FFF7D3FF8023DB05ECE700B0054034
:10292000FCFF01000820014000A00540C821002054
:10293000FFFFFF0070B50400100080220A4BD20593
:102940001A600A4B002C0CD00125094A2C43DA618D
:10295000084A62401A6259629C620021FFF7B8FF80
:1029600070BDDC61F9E7C04600B00540008005405D
:10297000D3C007B02D3FF84FAA22064B12011A60B0
:102980002F220549DA60054A11605A68002AFCDAEC
:102990007047C0460040024000B0FA0000600240AC
:1029A00010B5034B01001800FEF780FB10BDC046B8
:1029B0008024002013B5054B054C01000093002234
:1029C0000B232000FEF748FB16BDC046AB0B0110E1
:1029D0008024002030B50D2589B004002A00002194
:1029E00068460CF029FC2A00002104A80CF024FC05
:1029F0004B236A466846137004A92A000DF0A0FB19
:102A000015210822200069440CF01CFC09B030BDDF
:102A1000142310B50100188804331B88984710BD93
:102A2000162310B50100188802331B88984710BD83
:102A3000F8B50E00040000270125B74201D1280097
:102A4000F8BD2068FFF7E4FF01C4431E98414042EF
:102A500005400137F1E700003F2110B5024B034A62
:102A600003480AF059FFC04634070110D33E011055
:102A70004F070110064B10B58B4205D01821054BAE
:102A8000054A06480AF048FF04F0B8FF10BDC046EA
:102A900090060020150D0110E83E0110340D0110C4
:102AA0001D4BF7B50500994205D01D211B4B1C4A53
:102AB0001C480AF031FF01230B7204F0C5FF03002C
:102AC000194C019001330AD1184B1A685B68A26057
:102AD000E3602B68280021005B699847F7BDFFF78A
:102AE00051FB06000F1E01DAFFF7B6FFFA220023A2
:102AF0009200002101980CF00FFB801979410B0026
:102B00008021020009068B4202D30122084B524267
:102B1000A260E360DDE7C046A80600206E0D01104C
:102B2000FD3E0110340D011090060020203E0110E2
:102B3000FFFFFF7F70B5094D04002B78002B03D1F8
:102B400000F02CFB01232B700125054923680D7231
:102B50002000DB699847280070BDC0467225002020
:102B6000A806002010B50400036804499B69984733
:102B70002368200002491B6A984710BD9006002078
:102B8000A806002000207047704710B5FFF7FAFA3A
:102B9000002901DAFFF760FF002905D0FA2200239F
:102BA00092000BF065FF10BDFA2189000BF022FFA7
:102BB000F9E7000010B50400FFF7E4FA002905DA90
:102BC0003F21044B044A05480AF0A6FE20606160DC
:102BD000200010BD34070110113F01104F070110F4
:102BE000020083680832002B03D1012011600B60C2
:102BF00070478B4202D01A001B68F4E70020F7E709
:102C0000030080680833002804D0884203D102689A
:102C100001201A60704703000068F4E74368021D52
:102C2000002B03D1012011600B6070478B4202D052
:102C30001A001B68F4E70020F7E7031D406800282E
:102C400004D0884203D1026801201A607047030053
:102C50000068F4E7F0B58368060085B0002B02D168
:102C6000002005B0F0BD02A8FFF7A4FF029C039D61
:102C700030000021144B08301A685B680092019301
:102C800003689C46002B05D10029E9D00868036839
:102C90000B60E6E7634626009A68DB682F00B61AE9
:102CA0009F41002F0EDB00998A4208D101998B4287
:102CB00005D14221054B064A06480AF02DFE1400B4
:102CC0001D0001006046DBE7203E01109E0D011053
:102CD000263F0110BF0D0110F0B50E4B81681A6838
:102CE0005B68002902D102614361F0BD16001F003C
:102CF0000C68A4468C68CD68361BAF41002F04DCFD
:102D000001D1002E01D114001D0022002B006146CC
:102D1000E7E7C046203E011070B506000C00200019
:102D2000FFF798FF011E0BD16568002D0CD1200024
:102D3000FFF7D2FF2269636930003260736070BDB3
:102D400020004B689847EAE72B7A002B05D0002338
:102D500029002B7220006B6898472D68E5E700007A
:102D600070B50F4C0F4D104A24184D41A900A00F0B
:102D70000843A90F69400D4B60400CF0CDF94A01A2
:102D8000C30E1343CA0E58405140094B094A0CF078
:102D9000C3F94A00C30F1343CA0F5840514070BDD6
:102DA000157C4A7FB979379EB9E5E41C6D4758BF59
:102DB000BB49D094EB113113F7B5040006684568A0
:102DC0008368C16808001A0028433243024331D0A7
:102DD0002806320A734002432F0A30060743180CB4
:102DE000844669404A4001926246080410435F40AD
:102DF0001A045740019A276042406260D80E4A0187
:102E00005B01C90E02430B43A260E360052200236D
:102E1000300029000CF080F90B000200410ED801AF
:102E20000143D201580E1043002309220CF074F91B
:102E300003B0F0BDFFF7A6F90300C3E7F0B5434BBD
:102E400087B09B690190DB0405D5E022404BDB6B2A
:102E50001340402B05D181213E4B3F4A3F480AF0A9
:102E60005BFDEFF305830393002300260027009307
:102E70003B4B1A681868596804925A680592039A7D
:102E8000002A29D0FFF788F9EFF31083029372B676
:102E9000344D2B68002BFCD0BFF35F8F304C049A6D
:102EA0002368934250D16368059A93424CD1300015
:102EB0003900012280197941244B0F00DB6913404E
:102EC00003431E00FFF75EF902000B1E07DA3F21E5
:102ED000254B264A2648C2E7FFF762F8D4E70A20C6
:102EE0000021801859410B008021020009068B4205
:102EF00002D301221F4B52420CC4019B00995A1E5F
:102F000001238A420CD11C4C019A206861680DF0A3
:102F10002FF93043394306000F0001232660676014
:102F2000BFF35F8F00222A60029A82F31088002B81
:102F30009ED0009B01330093009A019B934297D14E
:102F40003000390007B0F0BD0023E9E7000006407B
:102F5000008000400A0E01106A3F0110D10E0110DE
:102F6000C00D0020300100D034070110553F011082
:102F70004F070110FFFFFF7F780C0020F0B56E4B6C
:102F80008BB01B78002B69D16C4D6D4C286869683B
:102F900000236C4A0CF0C0F8002740CC6A4B801923
:102FA00079419C42F4D128606960FFF7D9FE0500A1
:102FB00004A80C00069F079E00F0E8F80498059905
:102FC000FFF7CEFE089B00900293099B40200393DD
:102FD0000191FFF733FFFFF7C3FE45404C407D40B2
:102FE000744006950794FFF7CDF8FFF7B9FE009BF4
:102FF00043401800019B4B401900029B5840039B23
:10300000089059400991EFF3108672B64F4C23682F
:10301000002BFCD0BFF35F8F474D2B78002B17D1CF
:103020004B484C4F591CCA001018D21912681F2A5D
:1030300000D077E0484A13700523436006A8FFF7E5
:10304000BBFE1022454806A90CF0FCF801232B70AA
:10305000BFF35F8F0023236086F310883F4C10225C
:10306000210006A80CF0EEF83D4D2B78DBB2009362
:10307000FFF788F8FFF774FE069F079E4740012080
:103080004E40FFF7DBFEFFF76BFE089B304A5840CF
:10309000099B08904B4009932F4B1B78DB009B1832
:1030A0009868304A904201D100229A600021FFF7CF
:1030B00057FE3840314006900791EFF3108772B603
:1030C000224E3368002BFCD0BFF35F8F2B78009A21
:1030D00093420FD0069A236861685A40079B069274
:1030E0004B40089A0793A368E1685A40099B0892ED
:1030F0004B40099306A8FFF75FFE10220090019154
:10310000200006A90CF09EF82B780133DBB22B705F
:10311000BFF35F8F0023336087F310880098019915
:103120000BB0F0BD0B00042900D079E7E9210E4B6C
:103130000E4A0F480AF0F0FBC0BE0020800C0020B1
:10314000001C04203F00010000200420300100D0BA
:10315000000003400400034023250020880C0020C9
:1031600024250020FFFFFF00050F01108A3F0110FA
:10317000D10E011010B5FFF701FF10BD10B50248C8
:10318000FFF728FC10BDC046B8BE002010B50822CD
:1031900001490CF057F810BDB8BE002010B501F081
:1031A00049F800F042FA00F0ABFA00F01BFB04F023
:1031B0005FFC01F095F800F053F904F00DFC10BD30
:1031C00040BA80B2704700BA70470000F8B50400FA
:1031D0000E00214D214F2B68002B0CD02A7AA242E1
:1031E00009D18820400060431D4A310080186A6878
:1031F000984700232B600C35BD42ECD18822520049
:103200006243184800238218150001000F359C42C4
:103210001BD0867A022E18D1C77B2E78B74214D1E4
:103220000423D37388235B005C430C19E37B032BDB
:103230000AD80D4D9B00585904F0C0FE0022E37BD4
:103240009B005A510423E373F8BD01331130DBB204
:10325000FF30042BDBD1E5E7041D0020341D0020E6
:103260004C1D00203C1D0020F41C0020F0B58824DB
:10327000640044433F4A89B01719FB7A0190012B3F
:1032800002D93D480AF0DAFB3C499B005D58002D0D
:1032900006D129000198FFF799FFBD7209B0F0BD72
:1032A0001034A41820000CF06DFDA022123081B261
:1032B0009200362000F0DEFC051EEFD005AE0C2299
:1032C000002130000BF0B8FF3889FFF779FF0123A8
:1032D0003080B3703100FF330C222800B38000F03F
:1032E00099FE0C26013C0134029423782E2B0CD13C
:1032F000029BE31ADAB29BB20393214BB7189F42A9
:1033000007DD280000F07CFCC8E7002BF0D001347A
:10331000EBE731002800013600F000FF039AB3B25A
:103320002800029900F0B4FEBFB222787E1CB6B22B
:10333000002AD8D13100280000F0F0FE114B0237EE
:10334000049304A9BBB20422280000F0A1FE882245
:10335000019952004A43074B08499B18DA7ADC7BF3
:103360000948A4009200521835232900205804F07F
:10337000B1FDC6E73C1D00200F0F0110341D0020D9
:10338000FEFF000000010001F41C002070B50400E5
:103390002F48042C59D088235B001A0062432D4D1E
:1033A000AA18907A03284FD80CF01AFF1F02204564
:1033B000FFF7E0FE2A00002380B2917A022902D1B1
:1033C00011898142F4D001331132DBB2FF32042B78
:1033D000F3D102220D33FF336343EB185A81188176
:1033E000013A9A812000FFF741FF70BD6343EB185B
:1033F0001A7B013AD2B21A73002AF6D15A7B0132F3
:10340000D2B25A73042A14D1DA7A002A06D1124AA7
:103410005268002A02D00122DA72E2E7002120007D
:10342000FFF7D4FE882300225B006343EB189A72F7
:10343000DBE71A73D6E76343EA58002AF2D0013A71
:10344000EA50002AEED0D0E704480AF0F7FAC04666
:10345000270F01103C1D0020341D0020410F0110DA
:1034600070470000012805D8044B8000002902D0D5
:103470000A681A507047024A1268FAE7341D0020A1
:10348000AC40011010B50020FFF780FF0120FFF7CE
:103490007DFF0220FFF77AFF0320FFF777FF10BDC3
:1034A000012330B5040000221C40184205D091428F
:1034B00003DD027801391202C018032503002B40F6
:1034C000284205D00023012902DD03880239023099
:1034D00007291ADC1D0C9BB2EB18012924DC04D14E
:1034E0000178FF2082430A4392B2D218130C92B2A1
:1034F0009B18180C9BB2C018002C04D00306000ABD
:103500001B0CC0B2184380B230BD056808395D1984
:103510009D429B415B42ED1843680830EB18AB427B
:10352000AD416D425B19D3E7058802395B19023062
:10353000D3E7F0B505000026012785B003920A9A6B
:10354000029111681B688AB2090C521899B252187C
:103550001B0C9B181A0C9BB2D3181C0C9BB2E418C2
:10356000002D19D1002E04D02306240A1B0CE4B22E
:103570001C430298FFF724FE05000398FFF720FE86
:1035800028180019030C80B21B18180C9BB2C01825
:10359000C04380B205B0F0BD6B8968681900019323
:1035A000FFF77EFF019B0019040C80B224183B42F8
:1035B00006D0FF222306240A1B0C14407E401C4325
:1035C0002D68CDE713B5049C0094FFF7B2FF16BD3C
:1035D00010B5FFF765FFC04380B210BDF7B50026F8
:1035E000050034000127002D09D1002E04D0230648
:1035F000240A1B0CE4B21C43E04380B2FEBD6B897D
:10360000686819000193FFF74BFF019B0019040C38
:1036100080B224183B4206D0FF222306240A1B0C4A
:1036200014407E401C432D68DDE770477047000062
:1036300010B50BF0E1FD041E05D1FFF7A3FAFFF76B
:10364000A3FA200010BD0322C31C93439842F8D074
:1036500001480AF0F3F9C046600F011010B50028C8
:1036600002D106480AF0EAF90322C31C93439842A8
:1036700001D00348F6E70BF0D3FD10BD840F011015
:10368000910F011010B50400FFF77CFAE3681C6885
:10369000002C06D022681A60A30702D003480AF063
:1036A000CDF9FFF771FA200010BDC046A90F011037
:1036B00070B505000C008B0702D006480AF0BEF971
:1036C000FFF760FAEB681A6822601C60FFF75CFA8B
:1036D00070BDC046CC0F0110002230B50324C16874
:1036E00083680A600333A343C488944200DC30BD7E
:1036F0000D6801321D600B6085885B19F5E70000DD
:1037000070B5044C044D01CCFFF7E6FFAC42FAD192
:1037100070BDC0469C3F0110C03F011010B5082885
:1037200004D905480BF0BAFE002010BD034B800001
:10373000C058FFF7A7FFF8E7EC0F01109C3F0110FE
:1037400010B5082803D906480BF0A8FE10BD0029C3
:10375000FCD0044B8000C058FFF7AAFFF6E7C04634
:10376000091001109C3F01100C20404270470000DE
:1037700010B5002802D109480AF060F903000522BB
:1037800039331B781A40052A07D14268002A04D031
:103790001B0702D5011D05F023FE10BD801001108E
:1037A00073B5436815000A6804000E009A4218D0E9
:1037B0002B60280001A9019201F074F8280001A9EA
:1037C00004F02CFC280001A900F01AFD3368012147
:1037D00063602000FFF7CCFFE369002B01D02000DD
:1037E000984773BD70470000F7B504000D0017003F
:1037F0001E00002900D1114D002F00D10F4F002EC7
:1038000000D10E4E00232A689A4205D129002000DB
:1038100001AAFFF7C5FF01233A68A1688A4200D0D8
:10382000A2603268E1688A4200D0E260002B04D1D5
:103830002900200001AAFFF7B3FFF7BDAC4001103B
:10384000F7B504000F00160034480093002C03D095
:10385000099B002B05D132480BF020FE00242000EC
:10386000FEBD002900D12F4F002E00D12D4E009B10
:10387000002B01D12B4B00932B4B002563612300C0
:103880002000393329006560A560E56025860422A3
:103890001D7028300BF0D0FCE56125622500089BE7
:1038A0003C356362214B200001931B7832002B7062
:1038B0000A9B39002361009BFFF796FF2000099BBC
:1038C00098470028CAD11A4E37682B78FF2B00D1B1
:1038D000287080213B004900002B09D12A78FE2A5C
:1038E00001D00132D3B2019A276013703460B6E779
:1038F0009C4202D10F480AF0A1F80139002901D1F8
:103900000D48F8E72A7894461A003C32127862454E
:1039100002D101322A70D8E71B68DDE7A31001103D
:10392000BC100110AC40011069370010B5BE00207A
:10393000F4210020DE100110F2100110014B18607C
:103940007047C046F021002010B5041E03D10A487C
:103950000BF0A4FD10BD0200012339321178194289
:10396000F8D10B431370C369002B00D09847032193
:103970002000FFF7FDFEEDE72011011010B5041E39
:1039800003D10C480BF08AFD10BD02000121393231
:1039900013780B42F8D01800884310701B0702D52B
:1039A000200005F043FCE369002BEDD02000984790
:1039B000EAE7C0463C11011070B5041E23D04368ED
:1039C000002B0CD0051D0021280000F06BFF00210A
:1039D000280004F023FB0021280000F011FC230044
:1039E00039331B78DB0702D52000FFF7C7FF0B4BED
:1039F0001A68A24201D100221A60094A1368A34240
:103A000003D12368136070BD1300002BFBD01A682C
:103A1000A242F9D122681A60F5E7C046F0210020E1
:103A2000F421002010B5041E03D10C480BF036FD24
:103A300010BD02000423393211781942F8D10B432A
:103A4000137005F0A5F803212000FFF791FE236A0B
:103A5000002BEDD020009847EAE7C0465A1101102C
:103A600010B5002803D108480BF018FD10BD020066
:103A70000421393213780B42F8D08B431370036A58
:103A8000002BF3D09847F1E77B110110031E03D000
:103A9000064A1068002800D1704702003C321278B4
:103AA0000132D2B29A42F7D00068F3E7F421002045
:103AB000002802D043898B4203D9002A00D011800C
:103AC0007047C91A006889B2F2E70000030070B5B8
:103AD000002802D1144809F0B1FF802401206402BB
:103AE000A14202D2002901D1002070BD1C898EB2F2
:103AF0003419A4B20120A642F7D8187B7F280CD92C
:103B00001D005A6810350120511AA942EDD35A8977
:103B10005960B2185A811C81E6E70120002AE4D0DE
:103B20005A68511AF3E7C0461F12011010B5FFF78B
:103B300029F80022074B1A70FFF726F8064B186881
:103B4000002804D0436F002B02D000F08BFD10BD85
:103B5000C068F5E7B6BE002054240020F8B5402325
:103B6000170006000D0014009F43012F02D00848E3
:103B700009F064FF0720FFF7D1FD002807D00023DC
:103B8000466003600581458104734373C781F8BDB6
:103B90009E11011010B50022FFF798FF10BD000024
:103BA00010B5002802D10E4809F048FF80235B02BF
:103BB000994208D2002910D043898AB2934204D294
:103BC00008480BF06BFC012010BD9B1A4468438130
:103BD000038961189B1A416003810020F4E7C04605
:103BE0001F120110B011011010B5002903DA49426B
:103BF000FFF7D6FF10BD0122FFF768FFFAE70000CC
:103C0000F8B5002604000F271748B44205D0FEF788
:103C1000B9FFA57B002D04D1144809F00FFF2C003B
:103C2000F5E7013DEDB2A573FEF7AEFF002D0CD117
:103C3000237B25683B40022B09D121000820FFF798
:103C40007FFD0136F6B2002DE9D13000F8BD012B21
:103C500002D121000720F2E7002B03D12000FFF75B
:103C6000FDFCEEE70248D8E71F120110CE1101104B
:103C7000E4110110F8B5C12304000E005B009A4264
:103C800014D00CD81100433BFF3B994301290AD1C2
:103C900031000020FFF762FF05002800F8BDA023D7
:103CA0009B009A4239D0284809F0C8FE0020050040
:103CB00007000820FFF732FD00280DD1FEF762FF54
:103CC0000122224B1A70FEF75FFF002D02D0280060
:103CD000FFF796FF0025E0E70323E21C9A431C4B05
:103CE0009B1A1A1C9BB2B34200D9321C0021041942
:103CF00093B20160133403314281164A8C4344600D
:103D00000681C260002D06D038600024F61AB6B2D3
:103D1000A642CDD1C1E70500F7E70327C81CB84389
:103D2000E319BB431030C018FFF782FC051EB4D066
:103D30000023041903601334074BBC43446006811D
:103D40004681C360A9E7C046F6110110B6BE002047
:103D5000EC050000820001008000010070B5040045
:103D60000D001948002C1ED022898A422AD98A1AAD
:103D70006389AB420ED3227B12071AD1AB4218D013
:103D800061682000091B4919FFF750FC00280CD17D
:103D90000E4808E0ED1A2389ADB29B1823812468F0
:103DA000002CE5D10A4809F049FE844201D00948B7
:103DB000F9E7206865812581002801D0FFF720FF01
:103DC0000023236070BDC046111201104112011082
:103DD000291201105D12011003000020002B00D1F8
:103DE000704701301B6880B2F8E7000010B5041E70
:103DF0000CD0FEF7C7FEA37B0133A373FEF7C4FE0E
:103E0000A37B002B02D1024809F018FE10BDC0466A
:103E10007612011010B5002801D0002907D10B48F7
:103E20000BF03CFB10BD0C891219028118000368CD
:103E30000289002BF7D14389934202D0044809F04C
:103E4000FDFD0A8901609B180381EBE788120110D0
:103E5000BD12011010B50C00FFF7DCFF2000FFF7CA
:103E6000C5FF10BDF7B506000C0015001F000029A6
:103E700002D00B89934205D23C480BF00FFB102077
:103E80004042FEBD002805D0002102897B19009127
:103E90009A4201DA3648F0E7738962890099DB1BA0
:103EA000521A934200D913000193AB4200D90195F5
:103EB000009B70686168019AC019C9180BF0C2F9BB
:103EC000019A019B9446FF18009BAD1A634400932E
:103ED0007389ADB2BB4202D2264809F0AFFD6289B8
:103EE00000998A4201D22448F7E700998A4206D114
:103EF0002468002C24D1002D27D02048BDE7BB42E8
:103F00000AD13668002E17D1002D11D01C48B4E715
:103F100000230093F5E72F00628923899A4217D185
:103F20002368002B14D017480BF0B8FA0620A7E737
:103F3000002CF0D12000A4E70027BC42ECD109E01E
:103F4000BB42E5D000230093E6E70095BB42D8D002
:103F5000002E06D0728933899A4202D13368002B31
:103F6000E1D1002D98D128008BE7C046EA1201105C
:103F70001E1301104C130110631301107E13011066
:103F80008D1301109A13011010B5002905D10548B1
:103F90000BF084FA1020404210BD00230A89FFF77D
:103FA00061FFF9E7D1130110F7B5040017001748B6
:103FB0000191002C04D00026019AB2420DD1144880
:103FC0000BF06CFA00263000FEBD6289002B09D090
:103FD0009A4207D89B1A9BB22468002FF3D0002C7A
:103FE000F3D1F0E7D21A151C92B2BA4200D93D1CA7
:103FF000019A6168ADB29019C9182A00AE197F1BE9
:104000000BF020F9B6B20023BFB2E5E7EB130110C5
:104010000A140110F7B5051E01911848009203D04B
:10402000019B002B05D116480BF038FA10204042B6
:10403000FEBD2B89009C0027A34216D211480BF02D
:104040002DFA0120F3E7002D02D10F4809F0F6FC0C
:104050006E89A64200D92600019B6868D9193200F2
:104060000BF0F0F82D68A41BBF19002CEBD1009BBE
:1040700020009F42DCD00548E8E7C0462D1401101F
:10408000441401105F1401107F14011097140110E3
:10409000F7B50E0019006B469F1D14003A00FFF79C
:1040A00007FD051E1FD03A880189131999421ADBB2
:1040B00043899A4202D30D4809F0C0FC27009B1A9D
:1040C0009C4200DD9FB26868310080183A000BF016
:1040D000B9F80020E21B92B2824203D02868F1199D
:1040E000FFF798FFFEBD01204042FBE7AD14011031
:1040F0000B0070B5150011891A00FFF7BBFD041EF7
:1041000007D02900FFF740FF002802D0024809F03D
:1041100095FC200070BDC046C414011037B56B4635
:104120009D1D14002A00FFF7C3FC002805D02B8832
:1041300042899A4201D94268D45437BDF0B52C4B1C
:1041400085B0050019685869009306F05FFA03907E
:10415000002007006B685B7A0193264B1C68002CDB
:1041600032D0237C019A934236D1227A002A07D09A
:10417000009B5B683C331B780133DBB29A422BD146
:10418000039A2368002A21D0002B25D10122637CC9
:10419000134204D0164B62681B699A421CD16369B2
:1041A0001E1E19D06B682A0002932100124BA069D1
:1041B000B047002813D0002F05D0E368FB600D4BFB
:1041C0001A681C60E260012005B0F0BD002BDDD054
:1041D000074A52699A42D9D02700E468BFE76B6862
:1041E000029A934202D0054809F028FC0220F3E726
:1041F000B02100202C220020C0210020D514011065
:1042000010B500280BD00368002B08D0002906D079
:104210000B68002B03D0064B1B68002B00D110BD90
:104220001C680268944201D10A681A60DB68F4E7EE
:104230002C220020704700008020F0B50426114C8D
:10424000C00123880133104A9BB2934201D1C0239D
:104250001B0232000D4F39680968002906D1013A66
:10426000D2B20437002AF6D1180006E0CD8A9D426A
:1042700005D1013880B20028E4D12380F0BDC9689F
:10428000EBE7C046B8060020FFFF000050400110D9
:1042900010B5041E02D1114809F0D0FB037D042B98
:1042A00003D0072B0ED0032B15D1200002F0F8FE0F
:1042B000052300280BD0431C0ED10823628B134327
:1042C000638308E002F0ECFE0028F4D1092320000B
:1042D000237503F041F8002010BDC0461E150110E3
:1042E00010B5FEF747FF034A8004034B800C80188B
:1042F000188010BD00C0FFFFB806002010B5037D78
:104300000100012B02D1034809F098FB0220FFF7BE
:1043100017FA10BD2A150110F8B504000D1E00D1C2
:104320001E4D002C05D11E480BF0B8F8102040425D
:1043300024E0237D002B04D01A480BF0AFF80620B0
:10434000F5E7194F002A05D1FFF776FF021E09D1C4
:104350000220ECE799007958096800290FD1013350
:10436000042BF7D12B68002B00D023600F4BE28287
:104370001A681C60E26003F0F5FA0020F8BDC88AF4
:10438000904207D10E68002E06D02868002803D07E
:10439000864201D0C968E0E70820C8E7AC400110B8
:1043A0003B150110511501105040011058240020F8
:1043B00070B504001600002806D127480BF06EF8EF
:1043C000250010235B4208E0037D002B0AD0234820
:1043D0000BF064F80F2300255B42002E00D03370F1
:1043E000280070BD0320FFF799F9051E31D0012286
:1043F00023690361E38A0275C382627D4275627A32
:104400004272227A0272E27AC272A27A82722268BE
:104410000260002B07D0124A1368A34211D1E3684F
:1044200013600023E3602000FFF768FF0D4BAB61D2
:104430000D4B1A681D60EA6003F094FA0023CCE784
:104440001300002BEDD0DA68A242F9D1E268DA60FD
:10445000E7E70123B6E7C04679150110A61501105C
:10446000582400205D48001060240020F8B5031E89
:104470000F4816D01C8DDA6A5D6A5F8E0D4EA01A49
:104480004019391CB74200D9311C89B2411A0CD5E8
:10449000521B08D480210020490294B28A4204D3DE
:1044A000054809F0CBFA002420005C85F8BDC04621
:1044B000DD150110D01600000116011010B5041E04
:1044C00003D111480AF0EAFF10BD037D012B02D190
:1044D0000E4809F0B3FA028D0D4B511889B299427A
:1044E00010D88A420ED820002185FFF7BFFF094B64
:1044F0009842E9D90223628B20001343638302F0C0
:104500002BFFE1E71900EEE71B160110331601102F
:10451000A02D0000670B000010B5041E08D04068F5
:10452000002801D0FFF76CFB21000420FFF708F9F9
:1045300010BD10B5002800D110BD0468FFF7ECFFD6
:104540002000F7E770B5051E02D1084809F076FA99
:104550000420FFF7E3F8041E06D0142229000AF015
:1045600071FE6068FFF742FC200070BD5916011013
:10457000002800D00161704710B5002807D0037DE6
:10458000012B02D1024809F059FA0830C16710BD69
:104590007316011010B5002807D0037D012B02D13E
:1045A000024809F04BFA0430C16710BD9A16011099
:1045B00010B5002807D0037D012B02D1024809F075
:1045C0003DFA9030016010BDC1160110002803D0E3
:1045D000037D012B00D181617047000010B50028D8
:1045E00003D107480AF05AFF10BD037D012B02D109
:1045F000044809F023FA03008C3319604277F3E78B
:10460000E7160110FD16011010B5002802D105486B
:1046100009F014FA044B054A1868126880181860EB
:1046200010BDC0461B170110B406002064240020F2
:1046300010B5002A02D10A4809F000FA00290DD06D
:104640000A8E002A0AD0131C282A00D22823283BCD
:104650001A1C9BB2834200D9021C90B210BDC04606
:104660003517011010B50400406F002803D0FFF784
:1046700060FF0023636710BD10B5041E03D112480C
:104680000AF00CFF10BD037D012BFBD90A2BF9D0DA
:10469000806F002803D0FFF7B3FA0023A367636F8E
:1046A000002B02D02000FFF7DDFF01235B42E06E0C
:1046B0002386FFF73EFF206FFFF73BFF00236834A0
:1046C0006360A3602380DDE75C17011010B50C1E4A
:1046D00002D11E4809F0B2F9002801D11C48F9E7BF
:1046E00003688B420FD1CB68036000232000E36096
:1046F000FFF7C2FF237D0A2B0DD1E36E002B1CD0E8
:104700001448E7E71300002BEFD0DA68A242F9D192
:10471000E268DA60E9E7012B0BD0628BD307ECD5B6
:10472000022313436383200002F016FE237D012B36
:10473000E3D100232375E38210BD236F0648002BCD
:10474000C8D1636F0548002BF3D0C3E7771701107A
:1047500093170110B3170110CB170110E4170110C4
:10476000F0B504000E0089B0002804D132480AF0E8
:1047700095FE09B0F0BD037D012B02D12F4809F051
:104780005DF90A2B07D121002D48FFF79FFF20007C
:10479000FFF7B4FDEDE7026D0592426A0692020052
:1047A0009032176802690792C58A002B3BD1002D11
:1047B00027D100252E00206F002801D0FFF7B9FE79
:1047C000E06E002801D0FFF7B4FE606F002801D032
:1047D000FFF7AFFE002E0AD0238B20000293231D8B
:1047E0000093069A23000599019502F057FD2000D9
:1047F000FFF784FD002FBCD00D2107984942B84730
:10480000B7E7104A1368834205D1C36813600023D9
:10481000E360CEE71300002BF9D0DA68A242F9D1A9
:10482000E268DA60F3E721000748FFF74FFF012253
:10483000064B1A70BFE7C046FB1701101418011091
:10484000682400205824002054240020C1BE0020E9
:1048500010B50121FFF784FF10BD0000080010B55E
:10486000002902D1034809F0E9F8FFF7F1FF0D2014
:10487000404210BD4518011070B504000800002C1E
:104880000AD1074809F0DAF802682368C5689A4235
:1048900001D1FFF7DDFF28000028F5D170BDC0462B
:1048A0006218011070B504000D00002814D00368D0
:1048B000002B11D00D4B1968FFF7DEFF0C4B2000C9
:1048C0001968FFF7D9FF002D06D02B68002B03D005
:1048D000084B1B68002B00D170BD196822689142FB
:1048E00001D12A681A60DB68F4E7C046542400202E
:1048F0005824002060240020002270B5040010001D
:104900000A4B19680A4B1D68002904D1002801D000
:10491000FFF726FF70BD0B7DA34205D10B6AEB1A92
:10492000934201D31A000800C968EDE7542400201F
:1049300064240020F8B505000220FEF7EFFE041EF7
:104940002ED1444F08343868002852D10100424B20
:10495000424E1B683468002B55D1002801D0FFF768
:1049600077FF0220FEF7DAFE041E19D10920FFF7B7
:10497000C3FF0220FEF7D2FE041E11D10820FFF76C
:10498000BBFF0220FEF7CAFE041E09D16BB2002B4A
:1049900043DB2B1E42D10220FEF7C0FE041E26D0B0
:1049A000A422002120000AF047FC23002C4A643393
:1049B00065751A802B4B0622A362FF23E372A31CAA
:1049C000DA87294BE2872363244B284A1B6823623A
:1049D000274B1B78A377274BA36423000833DA67A0
:1049E000254A8C331A60254A5A6009229A602000B1
:1049F000F8BD438BC668234203D0A3434383FFF72C
:104A000047FC3000A0E71A6AA21A8A4203D20A00C1
:104A10001100DB689FE71800FAE77F2300213A685E
:104A2000013B3768DBB2002A05D1002CB3D020004F
:104A3000FFF70EFFAFE7507D984204D307D1166A07
:104A4000BE1B8E4203D303001400116A791AD26888
:104A5000E9E7C04654240020682400206424002094
:104A6000A02D0000A02DA02DFFFF1802FD4B00106F
:104A7000C3BE00200100A02D00DD6D00F824010060
:104A800010B54020FFF756FF10BD000030B5040000
:104A900085B04548002C12D0237D00293DD0042B41
:104AA00001D0072B39D1A36F002B04D13F4B228DAE
:104AB0009A4200D174E0638BDB0602D43C4808F0D4
:104AC000BDFF238B20000293E38A0193231D0093F3
:104AD000626A2300216D02F0E1FB2000FFF7CCFDAC
:104AE000344A1368A34210D1E36813600023012203
:104AF000E360314B1A70314B1B68A3421ED101F0A9
:104B000073FE002005B030BD1300002BEED0DA6834
:104B1000A242F9D1E268DA60E8E7012B1BD0022B50
:104B200036D0002B3CD1E38A002B07D0244A1368EF
:104B3000A34208D1E36813600023E3602000FFF77D
:104B4000DDFBDEE71300002BF6D0DA68A242F9D1D4
:104B5000E268DA60F0E700201A499A008A58126881
:104B6000002A0FD10133042BF7D117482100FFF79A
:104B7000ADFD237D1548012BA1D021000320FEF7B8
:104B8000DFFDBEE7D56FAC4200D1D067D268E7E762
:104B900021000848FFF79AFD0122074B1A70CDE764
:104BA0002000FFF775FBADE796180110A02D00005F
:104BB000B618011054240020C1BE00205C2400203F
:104BC000582400205040011060240020CF1801100C
:104BD00010B5002805D108480AF060FC10204042BA
:104BE00010BD037D012B03D01023428B134343835D
:104BF0000121FFF74BFFF3E7E818011010B508009B
:104C00001400002905D10A480AF048FC102040424F
:104C100010BD002A07D01189FFF750FC2000FEF7D5
:104C2000EFFF0020F4E7002BFBD1FFF7D1FFEFE708
:104C3000FF180110F7B5041E06D11C480AF02EFC1F
:104C400010256D422800FEBD866F0700737B083774
:104C500001930023FD6F83679D421AD0010032004B
:104C60000069A847051E1BD1019B9B06EAD5238D31
:104C70000F4A934201D001332385FE6F002EE1D00D
:104C8000002321001A002069B0470D30DAD10D252C
:104C9000D7E701002B0032002800FFF7AFFFE1E764
:104CA0000D35F4D00525A667CBE7C0461A190110CB
:104CB000A02D0000F7B508271A4E33780133337062
:104CC000194B1C68002C00D1F7BD3378A27F9A42A3
:104CD00026D0A3770123628B1A4209D0DB18134335
:104CE0006383200002F038FB0322638B93436383CA
:104CF000638B3B4204D0BB4320006383FFF7C8FAB9
:104D0000E3680193A36F002B08D00023074D200018
:104D10002B70FFF78FFF2B78002BD1D1019CD1E7AF
:104D2000E468CFE7C3BE002054240020C1BE0020A9
:104D3000F0B5B44FB44A3B6889B001333B60137897
:104D400001331370B14B1C6800230593002C06D16E
:104D5000AF4E3568002D00D0ABE109B0F0BD237D2A
:104D6000002B02D1AB4808F069FE012B01D1AA4803
:104D7000F9E70A2B01D1A948F5E7A34AA17F1278E8
:104D8000914203D1E56805942C00DFE72600A27765
:104D900042363278022B0DD1052A00D9E3E02500F6
:104DA000A1352B78002B00D18EE0226F002A53D042
:104DB0009B48D8E7012304930B2AF0D9227D062AC9
:104DC0000BD1638BDB0608D53B68216A5B1A282B65
:104DD00003D9049B0133DBB204930821637A0B42AD
:104DE00005D0042A00D1C0E0072A00D1BDE000258B
:104DF000636F002B0CD0236A3A68D21AA31C3E21A1
:104E0000595E06234B439A4202D32000FFF72AFC47
:104E1000237D032B00D0DCE03B68226A9B1A282B01
:104E200000D9DFE0049B002B00D0DBE0237F627F12
:104E30000133DBB2E56823779A42A4D8049B794E0C
:104E40002377337023008C331B68002B00D025E1BF
:104E5000200002F081FA96E7E26E002A01D1724842
:104E600081E722000121A232127804910B2AA5D8F1
:104E700026006E4AA0369A5C337893420FD3230003
:104E800060331988002912D0200001F0CDFF0028DE
:104E900012D1200002F060FA002805D00CE00133A6
:104EA000DBB233709342EAD20023049386E72000FA
:104EB00002F090FC0028F7D1002333702B78062BEA
:104EC000F2D801332B70EFE7238E594A934201D871
:104ED00001332386A51C3023E25E3E216B5E9A429D
:104EE000E2DB200002F00EF9002805D0236F002B32
:104EF000DAD1E36E002BD7D0237D022B14D03C22D5
:104F0000A35E3E21625E3178DB109B1849480A1C83
:104F10000C2900D90C22D2B2825C9340802212026A
:104F2000934200DB444BEB870023220023862300BF
:104F3000483260331D881088618E2B1C854200D951
:104F4000031C9BB24D005B08AEB2181CB34200D2EA
:104F5000281C23004A3318801180002220001A8464
:104F600002F0F6FBA0E701239FE73A68236AFA21E3
:104F7000D31A0693230094331B6849000793230038
:104F800098331E685868079B7043C01809F032FDBB
:104F9000069B834205D9049B01250133DBB20493B0
:104FA00026E72500FA21A3352B7849005E43079BAD
:104FB000F01809F01FFD069B834200D817E7200078
:104FC00002F0E8FB002800D011E72B7801332B70AA
:104FD0000DE7092B00D025E73B68226A9B1AF02BCE
:104FE00000D81FE72300200090331E68FFF744FB22
:104FF000059A064B002A49D01B689C4220D10F48D5
:10500000B1E6C04664240020C3BE00205424002022
:10501000682400204019011069190110921901102B
:10502000BE190110C1BE0020F01901105F4001102F
:10503000FE7F000067400110FF7F0000251A01106D
:10504000E368059AD360002D0BD0238B20000293D8
:10505000E38A0193231D0093626A2300216D02F00D
:105060001DF923692000E5680493FFF747F9002341
:10507000244C23709E4207D00D2104984942B0472A
:105080002378002B00D05DE6059C7CE61A689442EC
:1050900001D01D4867E6E2681A60D4E72100206964
:1050A00098473378002B00D04CE6002800D06AE601
:1050B000CEE62B7D0A2B01D0144854E63B682A6AC1
:1050C0009B1AF02B09D92800FFF7D6FA002C07D13C
:1050D00033689D4212D00E4845E62C00ED6839E653
:1050E00033689D4201D10B483DE6EB68E360EB6815
:1050F00028000493FFF702F9049D2BE6EB68336068
:10510000F5E7C046C1BE0020501A01107A1A0110FE
:10511000D01A0110A91A011010B5FFF7CBFD054AEE
:1051200013780133DBB21370DB0701D5FFF700FE04
:1051300010BDC046C2BE00200A4A1388591C118007
:10514000094A1268002A03D0084909888B4204D210
:10515000074A1268D318187D70475B1ADBB2D05C1F
:10516000FAE7C0461A250020702400201C250020E4
:105170006C240020F7B504000D00002802D1284857
:1051800008F05CFC03690126587B1A7B000210437F
:10519000FEF716F8304224D02800FFF7CAF90025A0
:1051A0002560F7BD787B3B7B00021843FEF708F8CB
:1051B00030420FD0236930005F7B1A7B3F021743D8
:1051C000FDF7FEFFFF2107432269BBB21B0A0F4018
:1051D000177353732F682800FFF79EF9002FDED056
:1051E0003D00104B228919682F69531801937B7970
:1051F00038791B020343B879019A00041843FB79FC
:105200001B0603432889D21A101ACBD5019A9A1A81
:10521000C6D5591A89B260682181FEF79FFDBFE7A4
:10522000F61A011038230020F8B5051E02D11B48DC
:1052300008F004FC1A4B1E88002E05D00023194CE0
:1052400023802388B34200D3F8BDFFF775FF012800
:10525000F7D002280AD00028F6D0FFF76DFF01280A
:10526000F2D92388023BC0182080EAE7FFF764FFE9
:105270000428E9D123880133B342E5DAFFF75CFF64
:105280000702FFF759FFBFB2384380B2421E0649FA
:1052900092B28A4200D905486886D2E71B1B0110EA
:1052A0001E2500201A250020B3050000B4050000CB
:1052B00010B50E4B04001A78102300201A4213D0A8
:1052C000628B1A4208D1230090331B68834203D0BB
:1052D0000F2120694942984721000548FFF7F6F958
:1052E0002000FFF70BF8012010BDC046B7BE00201C
:1052F00054240020F0B50C00160085B00390002C5B
:1053000016D10025280005B0F0BD1B1A3B80204BAC
:105310002A891988280052181A80FFF7FDF83B885F
:10532000002BECD0002C03D1002EEAD119482DE03F
:105330002169194B4A791F680B7912021A438B793C
:10534000C8791B04134300061843FDF73CFF019086
:105350002389250002932369587B1A7B000210439E
:10536000FDF72EFF029BFF1A019BFF1A0323184033
:10537000431E98413F1AC5D468682468FEF72CFD87
:10538000039F66373B889842BFD9044808F056FB14
:10539000182500205D1B0110DC100020351B0110BA
:1053A000F0B5037D070085B0A248032B00D8A3E029
:1053B000A14B1C680193A14B1B78DB0600D47FE056
:1053C0003B00603319889E4A7B6DB86D12681D1BC7
:1053D0000DD4A34201D1831A09D4904217D1994B1D
:1053E0001B689D7BDB7B1B022B4399420FD2954BA5
:1053F0001B689D7BDB7B1B022B433D0060356E8869
:105400002B8002359E4200D22B807C65BA657B6C76
:105410009C1A73D48C4C2488002C29D13C00603415
:105420002488BD6D091864198C4221D13020395E61
:1054300000291DDB93421BD13A0043321378FF2B26
:1054400001D0013313701378032B0FD93A0048327F
:1054500011887B8ECB189BB2994204D813803800F8
:1054600001F0EAFE04E001235B42F7E7032BF6D0EC
:105470007B6B002B24D07249BA6B0968521A1FD576
:10548000724A9BB215683C217A5EADB2D01080B2F0
:10549000EC1A241AA21812B221B2BA87240402D537
:1054A000591B411809B23E203B5ED21098101B1ABE
:1054B0005B189BB2FB879B18BA1CD38700237B63C6
:1054C000614B1C880293019B1A687B6A002C00D1F7
:1054D00091E3397D062900D98DE3991A012900D578
:1054E0004FE1501E0019C01A00D54AE1584C6068BF
:1054F000002800D092E0574808F0A0FAD943D142E2
:1055000000D587E0396D891A00D583E0390004257C
:105510007C8B4A31088802392C4206D0AC437C830C
:105520003C0000256A34088025803C257C5FFD8F87
:10553000E4106419BD1CEC8700253C1DE5877A64E6
:10554000D31A0A889BB2824215D28024788B240118
:105550002040444260417C8E01304443201CA4B270
:105560009C4200D9181C13189BB29A4201D90123FE
:105570005B420B8009E038006A300488E3189BB274
:105580009C422ED89A422DD90380FA6E396F38008A
:10559000FFF7B0FEF96E020038673800FFF7AAFE89
:1055A0003B6FF8665A425A4152423A8600223A7795
:1055B000904202D13A00683210803C00264964349F
:1055C00022880988521822807A8B120500D44FE76E
:1055D000002B1DD100280AD17B8B204A13407B83EE
:1055E00046E71F4B9B1A03807B8ED318BCE70169EB
:1055F0004A790B7912021A438B79C8791B04134339
:1056000000061843FDF7DFFDFB6CC01AE4D52FE759
:105610001969EDE7380001F075FE29E7114B994251
:1056200001D9114868E7038989B28B4220D20F481B
:1056300062E7C0467D1B011038230020742500203E
:10564000DC1000206C240020202500206424002091
:105650009C210020961B011018250020FFF7FFFF5A
:10566000FFFF0000FEFF0000A61B0110B51B01108C
:10567000002522895B1A521A22819BB242898A42F2
:1056800000D278E0FEF78CFA7B6A019A190A13605F
:10569000226913715171190C1B0E9171D371019B09
:1056A0007A6A1B68991A00D5C4E1D11A388D01397C
:1056B000C14200D5BEE1934200D0B1E1CF4C236995
:1056C0002589587B1A7B00021043FDF779FD0323DF
:1056D0001840431E9841029B2D18ADB21D803B8D92
:1056E000AB4255D22369587B1A7B00021043FDF769
:1056F00067FDC00713D523695D7B1A7B2D02154317
:105700002800FDF75DFD3E231840FDF759FDBC4B19
:1057100022691D40284383B21B0A107353733B8DCB
:1057200023812369587B1A7B00021043FDF748FD53
:10573000800702D52389013B238121896068FEF718
:105740000DFB23692589587B1A7B00021043FDF766
:1057500037FD03231840431E9841029B2D18ADB21C
:105760001D80019B7A6A1B68ED183B8D9B189D423A
:105770000ED0A448C0E6891A0381458189B2006829
:105780007CE7D21A8BD502237A8B13437B8386E77F
:105790007B6F002B61D02369587B1A7B000210437A
:1057A000FDF70EFD0123184254D17E6F019B1C684A
:1057B000954B1A8803931219002E45D031694B7905
:1057C00008791B020343887900041843CB791B0630
:1057D00003433089C018101A68D59A1A34D5874DFA
:1057E0001B1B2B812B69587B1A7B00021043FDF792
:1057F000E7FC800702D52B89013B2B81298968684A
:10580000FEF7ACFA2B692C89587B1A7B00021043F7
:10581000FDF7D6FC03231840431E9841029B241831
:10582000A4B21C80019B31691B680A79E4184B798A
:1058300076481B0213438A7912041A43CB791B065C
:1058400013439C4200D057E67E6706E003687B67FF
:10585000FEF762FE786F0028F8D16B4B6C481A880F
:10586000019B1B689B187B623B8D9A4200D943E6E3
:105870009B1A3B853800FEF7F9FD604B5A68118989
:10588000002903D063490A6000225A601B69587BD3
:105890001A7B00021043FDF793FCC00704D52023B8
:1058A0005D4A11780B43137003258BE0487B0B7B1B
:1058B00000021843FDF784FC0123184222D04F4D0B
:1058C0002B69587B1A7B00021043FDF779FC0223F9
:1058D000184217D12B6901205C7B1A7B24021443E8
:1058E000FDF76EFC04432B69A0B2020A1C735A73C5
:1058F0002C89FDF765FC03231840431E9841039B48
:1059000024181C8034683000FEF706FE26004DE7A0
:1059100001990B60507B137B000218432689FDF729
:105920004FFC2840431E98417B6AF6188019786224
:1059300023893E8D02932369587B1A7B0002104312
:10594000FDF73EFC2840431E9841029BC01886424A
:1059500001D23248D0E523692689587B1A7B0002A0
:105960001043FDF72DFC2840431E98413B8D8019C4
:105970001B1A3B853800FEF779FD61680B89002B07
:1059800007D0244B1868002836D0FEF743FA0023CE
:1059900063602369587B1A7B00021043FDF710FCFB
:1059A0000123184209D01C4A1F3311780B4313708E
:1059B0003B7D042B01D103333B75236820007B67BB
:1059C000FEF7AAFD7C6F002C0DD022695379117966
:1059D0001B020B43917909041943D3791B060B432E
:1059E000796A8B4294D001237A8B1A4201D09A4370
:1059F000022313437B8320E01960C8E79C21002029
:105A0000FFC0FFFFC51B011020250020FB1B01105C
:105A1000351C011034220020B7BE0020531C011099
:105A200000257C6F5A1E0292AC4209D17748FEF7DE
:105A300089FD7867380001F065FC05B0F0BD0C0009
:105A400022695079117900020843917909040143D0
:105A5000D07900060843844683420FD16B482389DE
:105A600002899A42E6D9FEF76DFD0028E2D0002DAA
:105A70000DD028602100FFF77DFBDBE7002D08D16A
:105A8000191A38D56148FEF75DFD0028D2D0786735
:105A9000F0E72E697079317900020843B179090481
:105AA0000143F079000608430299081A23D461469D
:105AB000C91A01291FD45548FEF744FD061EB9D066
:105AC000019B19682B6958791A79000210439A7959
:105AD000DB79120402431B0613432A89D2188A1A5F
