:020000041000EA
:1000000000B5324B212058609868022188439860DF
:10001000D860186158612E4B002199600221596106
:100020000121F02299502B49196001219960352056
:1000300000F044F80222904214D00621196600F024
:1000400034F8196E01211966002018661A6600F04E
:100050002CF8196E196E196E052000F02FF8012189
:100060000842F9D1002199601B49196000215960AB
:100070001A491B48016001219960EB211966A021F2
:10008000196600F012F800219960164914480160C1
:100090000121996001BC002800D000471248134993
:1000A000086003C880F30888084703B5996A0420EC
:1000B0000142FBD001200142F8D103BD02B5186610
:1000C0001866FFF7F2FF186E186E02BD00000240BE
:1000D000000000180000070000035F00212200005C
:1000E000F4000018222000A00001001008ED00E03C
:1000F00000000000000000000000000074B24E7A12
:1001000000200420F7010010C3010010C5010010F9
:10011000C1010010C1010010C1010010C101001097
:10012000C1010010C1010010C1010010C701001081
:10013000C1010010C1010010C9010010CB01001065
:10014000CD010010CD010010CD010010CD01001037
:10015000CD010010CD010010CD010010CD01001027
:10016000CD010010CD010010CD010010CD01001017
:10017000CD010010CD010010CD010010CD01001007
:10018000CD010010CD010010CD010010CD010010F7
:10019000CD010010CD010010CD010010CD010010E7
:1001A000CD010010CD010010CD010010CD010010D7
:1001B000CD010010CD010010CD010010CD010010C7
:1001C00000BE00BE00BE00BE00BE00BEEFF3058054
:1001D000103800BEF2EB8871685509108855091077
:1001E0003402001090A31AE700201F49086006C8D7
:1001F00081F3088810471D48006800282FD10DA4FE
:100200000ECC002902D000F012F8F9E71849194A7B
:10021000002000E001C19142FCD1174988471749ED
:1002200088471749884700BEFDE701C901C29A42C5
:10023000FBD3704788550910C0000020C022002061
:10024000A87709100000042000000420A8770910F6
:10025000001004200010042000000000704709482E
:1002600007F004FD0047000008ED00E0000000D0AA
:10027000E022002098F40020ED680010B13F00104B
:10028000AF6800105756000006005250ABB36053E1
:1002900068F1041006005250861C0302C0DF0410EF
:1002A000060052505422A29D78F1041005005250CD
:1002B000DE65F468A8770910F8B5C046044B10B5A0
:1002C000002B03D00349044800E000BF10BDC04626
:1002D0000000000098F1002000900410024A13680A
:1002E000013313607047C046CCF1002010B503689D
:1002F0005B68984710BD0000024B0360024B03602F
:100300007047C046BC300510A4300510024B036096
:10031000024B03607047C046D4300510883005108A
:1003200010B540682CF02CFD10BD10B540682CF0C5
:1003300087FE10BD10B5002B02DB0260436010BDCC
:10034000024B034A03483F2106F0B4FA0090041020
:100350001C9004105490041010B5040005F0D0FD5A
:1003600002000B002000FFF7E5FF200010BD000099
:1003700010B582B0064C6846FFF7EEFF009A019B6D
:1003800022606360034B00221A7002B010BDC046A9
:10039000102400208AF4002010B50400044B0360F0
:1003A000044B0360142108F0F1F9200010BDC04691
:1003B000D43005108830051010B50400044B0360DC
:1003C000044B0360082108F0E1F9200010BDC0468D
:1003D000BC300510A430051010B50C300400064BDD
:1003E000994204D008002CF069F9002801D02000BF
:1003F00010BD0024FBE7C046E839051010B5040025
:100400004368013B4360002B0BD103689B6898470E
:10041000A368013BA360002B03D12368DB682000A5
:10042000984710BD70B58E6893689E420CD10C68D9
:100430004D6853681268AB420ED80BD0A41A9D4188
:1004400004604560866070BD064B074A074808494E
:1004500006F030FAA242F1D9064B034A0348064996
:1004600006F028FA94900410A090041090910410C3
:10047000FD410000DC910410FE410000F0B5D646BD
:100480004F464646C0B588B080468A4691460C68BD
:100490004E68156857682A0000232000002108F0E4
:1004A0000DF800913A0000232000002108F006F822
:1004B000040005912A0000233000002107F0FEFF10
:1004C000069007913A0000233000002107F0F6FF64
:1004D00002900391009A002320000026310000249E
:1004E000002500940195059C00940196069E002726
:1004F000079C002512184B4192197B418026360635
:10050000002792197B410298039924184D410098C5
:10051000019924184D411E00002736196F4153469A
:100520009B684A4692689B18403342461660576063
:100530009360404608B0E0BCBA46B146A846F0BD5C
:1005400082B010B50400029203931300039A134380
:100550000CD10D4B0D4A0E480E4906F0ABF992181E
:100560005B4102920393049B013B0493029A039B19
:10057000002BF4DA102202A9200008F0F1F8200084
:1005800010BC08BC02B01847E8910410F4910410A4
:10059000909104104A420000F0B5C64600B58B6841
:1005A0009B1A1DD40F684E68190020391ED43C00D8
:1005B0008C4021003D009D40A8461C00203C1DD4DD
:1005C0000D00E5402C000D00DD40A7421ED1AE42DB
:1005D0001CD1434603604160826080BCB846F0BDD8
:1005E0000D4B0E4A0E480F4906F064F92021C91A36
:1005F0003C00CC40310099402143DBE72024E41A41
:100600000D00A5404446DC402C43DCE7064B034A82
:100610000348064906F04EF9A8920410B49204105B
:10062000909104105D420000789304105E42000037
:1006300070B505000C002D4B994233DB2C4B9942D1
:1006400036DC3D214942091B0B015B18DB005B18BE
:10065000DA009B189B015B18DA179203920BD318F0
:100660009B14CA17521AD20F9B1819003431FF314C
:10067000C817072202405218D2101E498B421DDBB8
:100680004E2A21D81C49120189181022280008F08E
:1006900067F8AB681B191A007C321BDB5F331FDA6B
:1006A000280070BD154B164A1648174906F002F986
:1006B000164B134A1348164906F0FCF8154B104A1E
:1006C0001048154906F0F6F8144B0D4A0D48144928
:1006D00006F0F0F8134B0A4A0A48134906F0EAF804
:1006E000124B074A0748124906F0E4F824FAFFFFC4
:1006F000DC050000C6FEFFFFF83405109C930410D3
:10070000A8930410909104108D43000040940410AD
:100710008E4300004C94041093430000589404103E
:10072000944300009094041097430000AC9404108C
:1007300098430000204B98421AD8204B98421BD86F
:100740001F4B98421CD81F4B98421DD81E4B9842F5
:100750001ED81E4B98421FD8FA239B0098421FD2E6
:10076000632820D8092822D801230B60012002E049
:10077000174B0B600A207047164B0B600920FAE7F5
:10078000154B0B600820F6E7144B0B600720F2E7CF
:10079000134B0B600620EEE7124B0B600520EAE7D7
:1007A0000B600420E7E764230B600320E3E70A23E0
:1007B0000B600220DFE7C046FFC99A3BFFE0F5056A
:1007C0007F9698003F420F009F8601000F27000090
:1007D00000CA9A3B00E1F5058096980040420F0060
:1007E000A086010010270000F0B5C64600B582B013
:1007F00084468846100019000A9C0B9D0C9E0D9F94
:100800004346002B0DDD099B994213D80FD0099B5D
:100810009D4218D814D033003B431AD00C960D9744
:1008200045E0314B314A3248324906F043F8089BE3
:100830009A42ECD9304B2D4A2D48304906F03AF80F
:10084000089B9C42E7D92E4B284A29482D4906F09F
:1008500031F82D4B254A26482C4906F02BF82C4B15
:10086000224A23482B4906F025F8A94201D1A0428B
:100870001FD802B080BCB846F0BD0C9E964220D96D
:10088000F7E702000B00121BAB41009C019D241AEC
:100890008D41AB4223D94346013B6246D2186446A0
:1008A000E35C302BDBD0013B1370009C019DA9421F
:1008B000DBD9089A099B121BAB410D9E9E42D8D8EA
:1008C000DBD022002B000C9E0D9F92197B410092E1
:1008D00001939942DFD8D4D19042DCD8D1E7AB4222
:1008E000C7D1A242D7D8C4E7C8940410D494041046
:1008F00090910410DA4300004C950410DB43000093
:100900005C950410DC4300006C950410DD4300008E
:1009100078950410F6430000F0B5DE4657464E4683
:100920004546E0B5A9B08246884693463C9C2300E4
:100930003C3353DB23001F3356DA32AA3AA920A8EE
:10094000FFF770FD209A219B1092119336AA3AA9C5
:1009500024A8FFF767FD249A259B0C920D9366420D
:100960003300203B46D40021002216911792012229
:100970009A4017920123B3401693169A179B1C9224
:100980001D931E943A9B9C463B9B99463300203B0B
:100990003AD44946D9400800189001225242D31750
:1009A000169C179DA4185D4122002B0012921393F0
:1009B000614621400C004A4613401D0000282BD000
:1009C00000231B931BA9FFF7B5FE814653461593E1
:1009D000C2465B461993B346189E42E0A24BA34A17
:1009E000A348A44905F066FFA34BA04AA048A34929
:1009F00005F060FF20239B1B002100221691179217
:100A00000122DA401792B5E720239B1B4946994003
:100A10006046F0400843BFE7994B944A944899498F
:100A200005F048FF984B914A9148984905F042FFDC
:100A300020225946521A3100D1400A0000210F915C
:100A400011430F915A4693400E930E9A0F9B121921
:100A50006B4111998B4229D91B980A2107F05AF949
:100A60001B904B46002B4EDD1B9B98461900300017
:100A700007F050F907004146300007F04BF90E002F
:100A8000092FCFD8303753461B685A1C51460A608D
:100A9000159AD75401235B429C46E14433005A46E1
:100AA000203AC5D4310091400F91CBE710981199AD
:100AB0008B4201D18242CFD85E46D04615998A46F4
:100AC00019998B4609684944584601601B993000C2
:100AD000203813D40C008440B14008004146096816
:100AE0000490059402920393109B119C009301942F
:100AF0000C9A0D9B5046FFF777FEAEE02020801B3E
:100B00000C00C440E8E75E46D046159B9A46199B08
:100B10009B46119B9D4205D90027B446B9465B46CA
:100B200015935CE0109A119B9D4201D19442F3D839
:100B3000574B4E4A4E48574905F0BCFE564B9C4217
:100B400051D9564B494A4A48554905F0B3FE202130
:100B50006046091A1800884011006646F1400143BA
:100B600018006646F040129E16403400139E1E4048
:100B7000350000284DD14AD0303143461B685A1CFD
:100B8000404602605246D15401239B46D944109EF0
:100B9000119FB30FBA0009921A430992B300089348
:100BA0000898099980197941001849410E900F91D0
:100BB000109011910C9E0D9FB30FBE000B961E431B
:100BC0000B960C9A0D9B96000A960A9E0B9F921903
:100BD0007B4192185B410C920D938D421FD9314B92
:100BE0009D42AED8AAD0A30FAA0007921A4307923B
:100BF000A3000693069A079B12196B4192185B415A
:100C000061462039A3D41800C8400100A8E709298B
:100C1000B2D91D4B154A1648234905F04BFE8D42AB
:100C200001D18442DBD84F46159E0E980F9906924B
:100C3000079333003668F61B1E6043461E68169AFB
:100C4000179B049205930294039500900191069AD4
:100C5000079B31005046FFF7C7FD29B0F0BCBB46EB
:100C6000B246A946A046F0BD8C950410A09504108C
:100C700090910410124400001096041013440000D8
:100C800024960410284400002C9604104C440000C4
:100C900034960410A3440000999999994096041041
:100CA000AE44000099999919B7440000F0B5C646C2
:100CB00000B5A8B00500884614003899309B9942C9
:100CC00047D1349B99424AD124A8FFF7B1FC249A1A
:100CD000259B269920922193229120AA32A91CA813
:100CE000FFF7CCFB20AA2EA918A8FFF7C7FB20AA64
:100CF00036A914A8FFF7C2FB189A199B01260027F2
:100D000092197B411A99109211931291149A159B82
:100D1000921BBB4116990C920D930E91279B5B423F
:100D2000236008A810220CA907F01AFD04A81022BD
:100D30001CA907F015FD102210A9684607F010FD48
:100D4000220041462800FFF7E7FD28B080BCB846E6
:100D5000F0BD064B064A0748074905F0ABFD074BB7
:100D6000034A0448064905F0A5FDC04678960410DC
:100D70009096041090910410F4440000F49604102E
:100D8000F544000070B5274B994211DBFA239B0014
:100D9000994213DA002917DB441C2B2303700D0042
:100DA000092916D8302323703031A01C617070BD22
:100DB0001D4B1E4A1E481F4905F07CFD1E4B1B4A59
:100DC0001B481E4905F076FD4942441C2D23037043
:100DD000E5E763290DD80A21280006F09BFF303093
:100DE00020700A21280006F095FF3031A01C6170A8
:100DF000DDE76421280006F08DFF3030207064218B
:100E0000280006F087FF0D000A21280006F082FF67
:100E1000303060700A21280006F07CFF3031E01C81
:100E2000A170C4E719FCFFFF049704101097041089
:100E30009091041057450000649704105845000035
:100E4000F0B5C64600B504000E001700069A002B48
:100E500018DA002A1CDDCD19A94201DCAA421DDAEC
:100E6000002D2EDDAA422CDBAE4224DD681C2018AA
:100E700065197A4229003CF059FE2E232B70013669
:100E8000A0192BE0264B274A2748284905F012FDD8
:100E9000274B244A2448274905F00CFD40183A0006
:100EA000302107F057FC2E2363556B1C3022E2548F
:100EB0000235601912E0204B1A4A1B481F4905F001
:100EC000F9FCAB4201DA002D0BDD012E1ED10134FD
:100ED000601C65232370691EFFF754FF80BCB84671
:100EE000F0BD02239846581B2018320021003CF028
:100EF0001DFE30232370023B6370A01C6A42302128
:100F000007F028FC4346D81B2018E7E7A01C611C0B
:100F1000721E3CF00BFE2E2363700136A419D7E736
:100F2000709704107C970410909104108C45000079
:100F3000DC9704108D450000E8970410A7450000D9
:100F4000F0B583B00D0017001E0001A912F068FF74
:100F5000A022B1B2920036200BF0A6FC040040683B
:100F60003200390007F0FCFB16F076FFABB2064A00
:100F7000106801AA21000FF0E7FF16F077FF2000AC
:100F80000BF054FC03B0F0BD3CF4002000B585B07C
:100F900007480023009303AB0422FE2116F03CFA1D
:100FA000039B433302DA012005B000BD0520FBE7B7
:100FB0007C44002070B505000C0002E0054807F0F5
:100FC000BBFD054B054A2100280013F014FA002848
:100FD000F4D170BDF0970410102700000400400009
:100FE00010B5040094239B00C0182BF0BEFD606870
:100FF000002801D0FFF702FA200010BD70B582B0C2
:1010000004000E00551A01950F2D0ED8009420688B
:101010002A0031002BF0DBFD002200920199616073
:1010200023685B181A7002B070BD002201A92BF072
:1010300079FD2060019BA360E8E7000070B5040023
:101040000D0003000833036000290AD008003FF0B8
:10105000FDF82A18002329002000FFF7CFFF200009
:1010600070BD014824F0B4FC2098041010B503783A
:10107000012B06D0022B0DD0032B14D0082B1BD034
:1010800010BD8268002AF5D1104B114A114812494F
:1010900005F010FC8268002AEED1104B0C4A0D4876
:1010A0000F4905F007FC8268002AE7D10D4B084A7A
:1010B00008480D4905F0FEFB8368002BE0D10B4B7F
:1010C000034A04480A4905F0F5FBC0465498041049
:1010D0008C98041090910410B44D0000FC9A0410F8
:1010E000B54D0000349B0410B64D00006C9B0410FD
:1010F000B74D000070B505000C000B7803708A68CE
:10110000CB688260C36000212000FFF7AFFF00239F
:10111000237000220023A260E36001212800FFF772
:10112000A5FF280070BD0378012B0BD0022B03D044
:10113000002B0AD1002004E0836858681B68C01A9D
:101140000011704783685869FBE70120F9E770B523
:101150000C69002C04D02578022D03D0002070BD2E
:101160000C00F8E72000FFF7DEFF022801D0002086
:10117000F5E7022D08D1A3681B681B78032B01D06B
:101180000020ECE70138EAE738F0A0FF30B502684C
:1011900043680C684D68046045600A604B6030BD70
:1011A00070B505000C0001212000FFF75FFF2B78D0
:1011B00022782A7023702800083021000831FFF7B8
:1011C000E5FF01212800FFF751FF280070BD000056
:1011D000F8B5040015001E000B680360002343608F
:1011E0004A684B6042600B6008304022002107F0E3
:1011F000B1FA3EF0E1FEA0644368002B21D01A78DA
:101200004C23E2540368002B1DD01A784D23E2547E
:1012100020004E308027BF003A00002107F09AFAE4
:101220000A4BE5540233E0180833E218083BE25059
:101230002A0039002BF0ECFC9A239B00E65020009A
:10124000F8BD0022DCE70022E0E7C0464E020000C5
:1012500003684068C01A43425841C0B270474068B2
:101260001038704703684068C01A43425841C0B202
:10127000704740680138704710B50800110007F04A
:1012800085FA10BD10B5040001688268521A002961
:1012900001D0FFF7F1FF200010BD10B50400FFF7EB
:1012A000F1FF200010BD10B5080053009A18D100BE
:1012B00007F06CFA10BD10B5080053009A189100A1
:1012C00007F064FA10BD10B504004168002903D08E
:1012D00000680122FFF7EFFF00236360200010BDCC
:1012E00010B584B00C2007F041FA040003AB019361
:1012F00002900C22002107F02DFA00232360636086
:10130000A360029C002C07D00023029301A8FFF7E2
:10131000DAFF200004B010BD024B034A0348044921
:1013200005F0C8FAA49B0410B49B0410909104101B
:10133000974C000010B504004168002903D00068F4
:101340000122FFF7B8FF00236360200010BD10B535
:10135000080053009A18D10007F018FA10BD10B514
:101360000800510107F012FA10BD10B504004168E1
:10137000002903D000680122FFF795FF0023636076
:10138000200010BD10B584B0182007F0EFF904005C
:1013900003AB019302901822002107F0DBF9002330
:1013A0002371A360221DE26022616361029C002C14
:1013B00007D00023029301A8FFF7D7FF200004B055
:1013C00010BD034B034A0448044905F073FAC046B4
:1013D000A49B0410A09E041090910410974C000050
:1013E00070B584B00400019141680368CB1A1B11E9
:1013F0000F48C01A019DA84210D303939D4210D8F4
:1014000003AA1068C0182368C91A091188420AD3B0
:1014100080231B05984208D204B070BD100024F050
:10142000EFFA01AAEDE70248F6E70148F4E7C04603
:10143000FFFFFF0710B504004168002903D00068D2
:101440000122FFF784FF00236360200010BD00002D
:1014500010B584B00400182007F088F902AB00939F
:10146000019003AA2100FFF7E9FD019C002C07D0A1
:10147000002301936846FFF7DDFF200004B010BD94
:10148000024B034A0348044905F014FAA49B0410D4
:10149000F0A1041090910410974C000010B50400C6
:1014A0004168002903D000680122FFF758FF00239C
:1014B0006360200010BD000010B584B0202007F04C
:1014C00055F9040003AB019302900C22002107F0B0
:1014D00041F9002323606360A360002000212061A4
:1014E00061612376029C002C07D00023029301A89F
:1014F000FFF7D4FF200004B010BD034B034A04489B
:10150000044905F0D7F9C046A49B04109CA404101C
:1015100090910410974C000010B5040008292AD8B7
:101520008900184B5B589F46FFF72CFF2060200076
:1015300010BDFFF7D5FE2060F9E71348FFF788FFDD
:101540002060F4E7FFF7B8FF2060F0E700230370A6
:10155000EDE70022002302604360E8E70022002359
:1015600002604360E3E70022002302604360DEE79D
:1015700000230360DBE7002303600029D7D138F0A4
:10158000A5FDC046A42F0510A41E051010B504002B
:1015900001700830FFF7C0FF01212000FFF766FD52
:1015A000200010BD10B504000021FFF7EFFF01215E
:1015B0002000FFF75BFD200010BDF8B5CE46474682
:1015C00080B50700884615008C680E1D012202E0D8
:1015D000E36826001C00002C09D0210010312800EF
:1015E0002BF0DAFDC20F0028F2DAA368F1E7B1466A
:1015F000002A07D04346DB68B34213D0300018F00E
:10160000B8FE81464846103029002BF0C5FD002861
:101610000BDB4B463B6000237B603800C0BCB94607
:10162000B046F8BD3C607E60F7E73C607E60F4E762
:1016300070B504001000104B9D5C2378002B11D076
:101640003F2202400B689B0113430B602378103349
:101650001B015B19C8225200934207D2064AD05C94
:10166000207070BDFF23EB401340EEE7034B044AAC
:101670000448054905F01EF9E83005106CA7041070
:1016800078A7041090910410A4490000F0B5D64644
:101690004F464646C0B584B007000E009246002370
:1016A00003930B226A441370002498469946002540
:1016B000FCE0039A222A09D8082A5FD31300083BCA
:1016C0001A2B5BD89B00AB49CB589F465C2A55D15F
:1016D0006B1C4E2278195C218154FB1802359954F9
:1016E00008E06B1C4E2279195C208854FB180235E7
:1016F0006221995480239B005B1B0C2B00D9EEE0E8
:10170000386803685B682A0039004E319847002327
:10171000984699460025C8E06B1C4E2279195C203A
:101720008854FB18023574219954E3E76B1C4E2250
:1017300079195C208854FB1802356E219954D9E739
:101740006B1C4E2279195C208854FB1802356621E7
:101750009954CFE76B1C4E2279195C208854FB18F2
:10176000023572219954C5E76B1C4E2279195C2011
:101770008854FB18023522219954BBE71F2A04D94B
:101780005346002B25D07E2A23D980235B029A4220
:101790000AD213041B0C784A38004E304019072136
:1017A00006F024FA0635A5E7930A74498C4663448B
:1017B0009BB29105890D724A9446614489B2714A7F
:1017C00038004E30401900910D2106F00FFA0C350B
:1017D00090E73368195D7A194E23D154013589E7B2
:1017E0009A239B00FB58002B11D055DB5A1E012A6F
:1017F00052D84246002A00D0013C012B09D00B23CD
:101800006B4400221A704D46002398464DE038F094
:101810005DFC5346002B2DD04B465A1C4E234946A7
:1018200079185C20C85449460231BA181930D0548E
:101830004A46033279180F38C85449460431BA1859
:10184000D0544A4605327918C854BA1806218C4635
:10185000E1445E31D15480239B004A469B1A0C2BF5
:10186000CDD8386803685B6839004E31984700234B
:101870009946C4E74B46591C4E22FB18EF2098545A
:101880004B460233791830388854FB1803218C46B4
:10189000E144BA319954DEE73B4B3C4A3C483D4970
:1018A00005F008F801239C46E044013473689C422B
:1018B00019D233681A5D03A90B206844FFF7B8FEFC
:1018C000002800D1F5E601288AD05346002BE9D143
:1018D0003368195D7A194E23D1540135E2E7A946E0
:1018E00000239846E1E70B236B441B78002B0ED1B5
:1018F000002D06D0386839004E3103685B682A0035
:10190000984704B0E0BCBA46B146A846F0BD9A2359
:101910009B00FB58022B17D025DC002B12D0012B8B
:1019200021D1386803685B684A4639004E319847D0
:101930005346002B10D03868174903685B680622AD
:101940009847DEE738F0C2FB386839004E3103684B
:101950005B684A469847D4E73868104903685B6873
:1019600003229847CDE7084B084A09480C4904F080
:10197000A1FFC046C82F051064A80410C0D7FFFF00
:1019800000DCFFFF6CA804107CA8041084A80410DD
:10199000909104103D4800005CA9041064A9041053
:1019A0007A48000010B510001900012400290BD05E
:1019B00000290ED0002913D0002919D0104A002385
:1019C00006F0E6F90434F1E7002907D10928EFD839
:1019D00004E0002901D16328ECD80134200010BDB7
:1019E000002903D1FA239B009842E5D20234F5E79F
:1019F000002902D1034B9842E0D80334EEE7C046F9
:101A0000102700000F270000F0B5D6464F46464687
:101A1000C0B582460A1E09D1006803681B683021E0
:101A20009847E0BCBA46B146A846F0BD08235344E7
:101A300099460D0000240023FFF7B4FF80463E289E
:101A400002D84E4646441DE01E4B1F4A1F482049FF
:101A500004F030FF642200232800210006F098F9EA
:101A60001700642200232800210006F091F90500E8
:101A70000C00711E174B7A00981840780870023ECF
:101A8000D35C3370002CE5D101D1632DE2D8002C5A
:101A900002D112D1092D10D9721E0E4B6D005919A9
:101AA00049781170023EEB5C337053461868036846
:101AB0005B68424649469847B3E73035013E35708A
:101AC000F3E7C04668A904108CA904109091041093
:101AD000FB48000008340510F0B5D6464F46464690
:101AE000C0B58246110019430FD0082151448946E0
:101AF000002B10DB14001D00FFF754FF8046434607
:101B00003E2B17D84E46464432E0006803681B68F7
:101B10003031984746E02D21017210001900002550
:101B200044428D4122002B005046FFF73BFF431CEF
:101B30009846E4E7204B214A2148224904F0BAFEA6
:101B4000642200232000290006F022F917006422F5
:101B500000232000290006F01BF904000D00711E6F
:101B6000194B7A00981840780870023ED35C3370A5
:101B7000002DE5D101D1632CE2D8002D02D116D180
:101B8000092C14D9721E104B640019194978117070
:101B9000023EE35C33705346186803685B68424654
:101BA00049469847E0BCBA46B146A846F0BD303435
:101BB000013E3470EFE7C04668A9041090AB0410F2
:101BC00090910410FB48000078320510F0B5D6461D
:101BD0004F464646C0B5824615001C0013002343FD
:101BE00009D1006803681B6830219847E0BCBA46F9
:101BF000B146A846F0BD0823534499462300FFF799
:101C0000D1FE80463E2802D84E4646441DE01E4B7B
:101C10001E4A1F481F4904F04DFE6422002328007D
:101C2000210006F0B5F817006422002328002100E7
:101C300006F0AEF805000C00711E174B7A009818DC
:101C400040780870023ED35C3370002CE5D101D19E
:101C5000632DE2D8002C02D112D1092D10D9721EA9
:101C60000D4B6D00591949781170023EEB5C3370D1
:101C70005346186803685B68424649469847B5E78B
:101C80003035013E3570F3E768A9041094AD0410B7
:101C900090910410FB4800004033051010B5081E59
:101CA00002DB06F063FD10BD23F062FE7047F0B565
:101CB00083B004000F0001AB1A700A1AD21093000F
:101CC0009B1819015B1819025B181E049E197600F7
:101CD000B618B61001E06034013E002E1CDD210074
:101CE00001A8FFF734FA002840D025001835290054
:101CF00001A8FFF72CFA002839D01835290001A8CF
:101D0000FFF725FA002832D01835290001A8FFF77F
:101D10001EFA0028DFD12AE03A1BD21093009B184C
:101D200019015B1819025B1819045B185B009B18FA
:101D3000022B0CD0032B03D0012B0FD03D0016E05B
:101D4000210001A8FFF703FA002813D0183421005E
:101D500001A8FFF7FCF900280ED01834210001A8D3
:101D6000FFF7F5F9002809D03D0000E02500280024
:101D700003B0F0BD2500FAE72500F8E72500F6E7F7
:101D800070B50C0015001E0001E02500A468002CB1
:101D900008D02000103031002BF0FEF90028F4DAD2
:101DA000E468F4E7280070BD10B50B008168021DDF
:101DB000FFF7E6FF10BDF8B5CE46474680B50400F4
:101DC000884615001E000B0004339A4216D01023DB
:101DD00099469144494630002BF0DEF9002822DB79
:101DE000310048462BF0D8F900283CDB2560002361
:101DF00063602000C0BCB946B046F8BD4B69002BFB
:101E000007D00D692800103031002BF0C5F90028EB
:101E100005DB320041462000FFF7CFFBE9E7002356
:101E200023606560E5E74346DB68AB420FD02800DE
:101E300018F09FFA0700103031002BF0ADF90028A0
:101E40000BDAFB68002B05D025606560D1E72360C5
:101E50006360CEE723606760CBE732004146200035
:101E6000FFF7ABFBC5E743461B69AB4210D0280028
:101E700018F077FA07000100103130002BF08CF9D0
:101E800000280CDAEB68002B06D027606760B0E70B
:101E9000002222606360ACE723606560A9E732003E
:101EA00041462000FFF789FBA3E770B50400160048
:101EB0001D0000290AD00120231D3200290018F03E
:101EC00060FA636901336361280070BD031D9A42A3
:101ED00009D028001030110010312BF05DF90028D6
:101EE00003DB0020E8E70120E6E70120E4E710B586
:101EF00082B004000091019200686368FFF7D5FF8B
:101F00000023636002B010BD70B50400002905DC39
:101F10000DE0206818F029FA206029004D1E0029E4
:101F2000F7D170BD206818F028FA206029004D1CF8
:101F30000029F7D1F5E710B50800110106F026FCDD
:101F400010BD10B5040001688268521A12110029F0
:101F500001D0FFF7F0FF200010BD10B50023802254
:101F6000120591425B41002B03D1080106F0FEFBF4
:101F700010BD80235B05994201D323F009FD23F0B6
:101F8000F7FC10B504004068002802D0182106F0C4
:101F9000FDFB00236360200010BD10B50400406805
:101FA000002802D00C2106F0F1FB00236360200022
:101FB00010BD10B504004068002802D0182106F0BA
:101FC000E5FB00236360200010BD000010B584B065
:101FD0000400182006F0CAFB03AB01930290210015
:101FE0002BF003F9029C002C07D00023029301A8D8
:101FF000FFF7DFFF200004B010BD034B034A044885
:10200000044904F057FCC046A49B0410A4AF04107C
:1020100090910410974C000010B50400406800280F
:1020200002D0202106F0B2FB00236360200010BD27
:1020300010B504004068002802D0182106F0A6FB65
:1020400000236360200010BD10B584B00400182088
:1020500006F08CFB02AB0093019003AA2100FEF76F
:10206000EDFF019C002C07D0002301936846FFF789
:10207000DFFF200004B010BD024B034A03480449AF
:1020800004F018FCA49B041098B204109091041062
:10209000974C000010B504004068002802D01821B9
:1020A00006F074FB00236360200010BD10B584B0FF
:1020B0000400182006F05AFB02AB0093019003AA1B
:1020C0002100FEF7BBFF019C002C07D000230193E9
:1020D0006846FFF7DFFF200004B010BD024B034A43
:1020E0000348044904F0E6FBA49B041044B5041023
:1020F00090910410974C000010B50400406800282F
:1021000002D0182106F042FB00236360200010BDBE
:1021100010B584B00400182006F028FB02AB009331
:10212000019003AA2100FEF789FF019C002C07D033
:10213000002301936846FFF7DFFF200004B010BDC5
:10214000024B034A0348044904F0B4FBA49B041067
:10215000F4B7041090910410974C000010B50400DF
:102160004068002802D0182106F010FB00236360AD
:10217000200010BD10B584B00400182006F0F6FA57
:1021800002AB0093019003AA2100FEF757FF019CC8
:10219000002C07D0002301936846FFF7DFFF2000E3
:1021A00004B010BD024B034A0348044904F082FB0B
:1021B000A49B0410A0BA041090910410974C000046
:1021C00010B504004068002802D0182106F0DEFA9D
:1021D00000236360200010BD10B584B004001820F7
:1021E00006F0C4FA02AB0093019003AA2100FEF7A7
:1021F00025FF019C002C07D0002301936846FFF7C0
:10220000DFFF200004B010BD024B034A034804491D
:1022100004F050FBA49B04104CBD041090910410DA
:10222000974C000010B5084B8B4205D3C800401AEC
:10223000C00006F09BFA10BD044B994201D923F06F
:10224000A7FB23F095FBC04692244902244992043F
:1022500010B50800D3009A1AD10006F097FA10BD05
:1022600010B504004068002802D0182106F08EFA4C
:1022700000236360200010BD10B584B00400182056
:1022800006F074FA02AB0093019003AA2100FEF756
:10229000D5FE019C002C07D0002301936846FFF770
:1022A000DFFF200004B010BD024B034A034804497D
:1022B00004F000FBA49B0410F8BF041090910410DC
:1022C000974C000010B504004068002802D0182187
:1022D00006F05CFA00236360200010BD10B584B0E6
:1022E0000400182006F042FA02AB0093019003AA02
:1022F0002100FEF7A3FE019C002C07D000230193D0
:102300006846FFF7DFFF200004B010BD024B034A10
:102310000348044904F0CEFAA49B0410A8C2041098
:1023200090910410974C000010B5040040680028FC
:1023300002D0182106F02AFA00236360200010BDA5
:1023400010B584B00400182006F010FA02AB009318
:10235000019003AA2100FEF771FE019C002C07D01A
:10236000002301936846FFF7DFFF200004B010BD93
:10237000024B034A0348044904F09CFAA49B04104E
:1023800058C5041090910410974C000010B504003B
:102390004068002802D0182106F0F8F90023636095
:1023A000200010BD10B584B00400182006F0DEF93E
:1023B00002AB0093019003AA2100FEF73FFE019CAF
:1023C000002C07D0002301936846FFF7DFFF2000B1
:1023D00004B010BD024B034A0348044904F06AFAF2
:1023E000A49B041008C8041090910410974C00009E
:1023F00070470000F0B5C64600B596B0804616009E
:102400001F005B005D08012252424F4B3000290043
:1024100005F041FF002825D1012252424A4B3000ED
:10242000290005F033FF00281CD1002200233000D2
:10243000390005F02BFF00281AD030003900FFF7D3
:10244000D7FF0C0D0025020009030B0B002C15D142
:10245000129213933D4914911A4320D1002D18D0A4
:1024600001201DE03A4B3B4A3B483C4904F022FA2C
:102470003B4B384A38483B4904F01CFA0020802185
:10248000490380185941384EA61912901391149699
:10249000E2E7002D01D1012CE2D8002000E000206D
:1024A000129A139B16001F00B6185F4101240025E5
:1024B000A4197D4114998C4601390E940F95109101
:1024C000002837D0940F99002143900001225242F6
:1024D000D317801859416346023B0A900B910C9325
:1024E000082210A9684606F03BF90E9A0F9B06A831
:1024F000FEF726F8089A0AA902A8FEF74DF8082266
:1025000014A9684606F02CF9129A139B4046FEF770
:1025100017F840461030102202A906F021F9404673
:102520002030102206A906F01BF9404616B080BCE8
:10253000B846F0BD01225242D317B6185F410A9641
:102540000B970C91CCE7C046FFFFEF7FCEFBFFFF60
:10255000B8CA0410D0CA041090910410744200004C
:1025600074CB041075420000CDFBFFFFF0B5D646DA
:1025700000B598B004000D0092461E9B1E001F9BE4
:102580005B005F0801225242204B3000390005F009
:1025900082FE00282DD1012252421C4B300039000E
:1025A00005F074FE002824D1002200231E981F99F4
:1025B00005F06CFE002822D01E9A1F9B0CA8FFF786
:1025C00019FF08A8102214A906F0CAF804A81022BE
:1025D0000CA906F0C5F8102210A9684606F0C0F84C
:1025E000524629002000FEF761FB18B080BCBA46B5
:1025F000F0BD074B074A0848084904F05BF9084B4F
:10260000044A0548074904F055F9C046FFFFEF7F2B
:10261000B8CA041080CB0410909104103245000019
:1026200074CB041033450000F0B5C64600B586B043
:102630008046039116001F005B005D080122524294
:10264000364B3000290005F026FE00283ED101223D
:102650005242324B3000290005F018FE002835D1D7
:10266000002F09DA802109067B181F002D2342461E
:1026700013702C3B9C46E0440022002330003900BC
:1026800005F0E6FD002827D1039B42469C1A102C3A
:102690002BDD0023059304930096019704AA05A956
:1026A0004046FFF763FF0599112924DC152C28DD2E
:1026B000162C2CDD0423049A0F2000905B42404628
:1026C000FEF7BEFB06B080BCB846F0BD144B154A01
:1026D0001548164904F0EEF83023424613702E22B6
:1026E00041464A70C81C8B70ECE7114B0D4A0E48EE
:1026F000104904F0DFF8104B0A4A0B480F4904F068
:10270000D9F80F4B074A08480E4904F0D3F80E4B8E
:10271000044A05480D4904F0CDF8C046FFFFEF7F9D
:10272000B8CA0410F4CB041090910410E1450000E5
:1027300060CC0410FA450000A0CC04100446000050
:10274000D4CC04100C46000028CD04100D46000027
:1027500070B5040005000835010048312800FFF776
:1027600063FF02002068521B03685B6829009847DA
:1027700070BD0000F0B5C64600B582B080461600B8
:102780001F005B005D0801225242124B30002900FD
:1027900005F081FD002808D1012252420D4B300086
:1027A000290005F073FD00280AD0434618680A493D
:1027B00003685B680422984702B080BCB846F0BD4D
:1027C0006B4600221A7032003B004046FFF7C0FF04
:1027D000F2E7C046FFFFEF7F6CCD0410F0B5CE46A8
:1027E000474680B585B004000D0016001F0009782B
:1027F000092900D901E38900D34841588F46AB68C5
:102800005B69002B18D0002A00D1A9E02068CF49CD
:1028100003685B68022298470D9B0C9A94466344B8
:10282000994694239B00E318596849450BD3AB683C
:10283000DE68002398463FE02068C54903685B686E
:1028400002229847E7E1490094239B00E0182022E8
:102850002AF0FAFAEBE7206894239B00E15803681A
:102860005B684A469847206803681B68222198479E
:10287000310010313A002000FEF708FF2068B5490A
:1028800003685B6803229847310028314B46019367
:102890000C9B00933B0001222000FFF79FFF206864
:1028A000AD4903685B680222984701239C46E044D7
:1028B000300017F05AFD0600AA685369013B4345F2
:1028C000C9D80432B2423FD003960022012103A8A6
:1028D000FFF71AFB039AAB68043393423AD120689E
:1028E0009425AD00615903685B684A4698472068A3
:1028F00003681B6822219847310010313A002000FC
:10290000FEF7C4FE2068934903685B68032298477A
:10291000310028314B4601930C9B00933B00012270
:102920002000FFF75BFF206803681B680A219847B7
:102930002068615903685B680D9A984720680368AE
:102940001B687D21984766E1844B854A8548864906
:1029500003F0B0FF854B824A8248854903F0AAFF05
:10296000206803681B687B219847AB68DE680023FA
:10297000984627E0206803681B68222198473100A9
:1029800010313A002000FEF781FE20687949036883
:102990005B6802229847310028310D9B01930C9B04
:1029A00000933B0000222000FFF718FF2068036817
:1029B0001B682C21984701239C46E044300017F007
:1029C000D4FC0600AA685369013B4345D2D80432BF
:1029D000B2422CD003960022012103A8FFF794FAFB
:1029E000039AAB680433934227D1206803681B68BD
:1029F00022219847310010313A002000FEF746FEB0
:102A000020685C4903685B680222984731002831DE
:102A10000D9B01930C9B00933B0000222000FFF7CD
:102A2000DDFE206803681B687D219847F3E04B4B6F
:102A30004B4A4C48504903F03DFF4C4B484A4948EB
:102A40004E4903F037FFA868FEF702FC002815D1B5
:102A5000002E70D020684A4903685B6802229847BC
:102A60000D9B0C9A94466344984694239B00E3186C
:102A70005968414509D3AB681E6827E02068414981
:102A800003685B6802229847C5E0490094239B00D5
:102A9000E01820222AF0D8F9EDE7206894239B0063
:102AA000E15803685B6842469847434601930C9B94
:102AB00000933B00012231002000FFF78FFE2068C9
:102AC000254903685B68022298471036A868436866
:102AD000103BB342E1D1FEF7BBFB002825D12068B3
:102AE0009426B600A15903685B6842469847A868D7
:102AF000FEF7B5FB0100434601930C9B00933B009E
:102B000001222000FFF76AFE206803681B680A2183
:102B100098472068A15903685B680D9A9847206818
:102B200003681B685D21984775E0174B0C4A0D48F8
:102B3000164903F0BFFE206803681B685B219847B5
:102B4000AB681E6834E0C0463430051078CD041000
:102B500074CD0410D8CE04107CCD041080CD0410A8
:102B6000A0CD0410909104109546000068CE04108A
:102B70009646000094CE0410B1460000B246000014
:102B80009CCE041098CE0410A0CE0410DB460000AA
:102B90000D9B01930C9B00933B0000223100200011
:102BA000FFF71CFE206803681B682C21984710362D
:102BB000AB6898465B68103BB342E9D14046FEF7EC
:102BC00047FB002812D14046FEF749FB01000D9B50
:102BD00001930C9B00933B0000222000FFF7FEFDB9
:102BE000206803681B685D21984714E0864B874A7C
:102BF0008748884903F05EFE206803681B6822212D
:102C00009847A9683A002000FEF740FD2068036855
:102C10001B682221984705B0C0BCB946B046F0BD3C
:102C2000002A7AD020687C4903685B6802229847B2
:102C30000D9E0C9B9C46664494239B00E3185968A8
:102C4000B14215D3206894239B00E15803685B6868
:102C5000320098472068714903685B680A229847E8
:102C6000AF683800FEF7FEFA00281FD13F6812E077
:102C7000490094239B00E01820222AF0E5F8E1E7C0
:102C800039782000FEF7C0FE2068654903685B685C
:102C9000022298470137A8684368013BBB42EFD145
:102CA000FEF7E7FA01782000FEF7AEFE20685D49E6
:102CB00003685B6803229847206894239B00E158CF
:102CC00003685B68320098472068574903685B686F
:102CD0000B229847AB681A7E002A18D12068534906
:102CE00003685B6804229847206803681B680A2110
:102CF0009847206894239B00E15803685B680D9A0D
:102D00009847206803681B687D21984783E71A6904
:102D10005B692000FEF75AFFE6E720684449036834
:102D20005B680A229847AE683000FEF79BFA0028DD
:102D300016D1366809E031782000FEF765FE20687C
:102D400003681B682C2198470136A8684368013B3B
:102D5000B342F0D1FEF78DFA01782000FEF754FE61
:102D60002068344903685B680C229847AB681A7E78
:102D7000002A06D12068304903685B68052298471D
:102D800049E71A695B692000FEF720FF20680368A5
:102D90001B687D2198473EE72B7A002B06D02068E0
:102DA000264903685B680422984734E72068244971
:102DB00003685B68052298472DE7AA68EB68200046
:102DC000FEF78AFE27E7AA68EB682000FEF7FEFE02
:102DD00021E7AA68EB682000FFF7CCFC1BE720681E
:102DE000184903685B680B22984714E720680F496D
:102DF00003685B68042298470DE7114B034A0448B7
:102E0000114903F057FDC046A0CE0410A0CD041018
:102E100090910410F046000078CD0410BCCE041050
:102E2000C8CE0410CCCE0410D0CE04106CCD04104B
:102E3000DCCE0410E8CE0410F8CE041000CF04104D
:102E40007CA8041008CF041076470000704710B526
:102E50000800110005F09AFC10BD10B504000168CF
:102E60008268521A002901D0FFF7F1FF200010BD3F
:102E700010B50400FFF7F1FF200010BDF0B589B0D8
:102E800006000D004B1EDBB2012B0FD9032D00D124
:102E900083E06FD8012D77D0022D7CD1306800F00F
:102EA00017FA30680C2105F071FC74E000230193DF
:102EB00002930393022908D00368596901A800F01E
:102EC000D9F83768FC68043717E0036859681B684D
:102ED000C91A091101A800F0CDF8336818685968BB
:102EE00001AA00F07BF917E02100283101A800F0C9
:102EF0003DF9200017F035FA0400A742F4D10BE0A9
:102F0000069B1868596801AA00F068F9069800F055
:102F1000D4F904A800F08FF801A8FEF799F9002869
:102F200024D101A8FEF79BF9010004AC2000FEF7B4
:102F3000E1F802981038029000F07DF82378022B17
:102F4000DED0012BE5D1069FFC68043708E02100A4
:102F5000283101A800F00AF9200017F002FA040055
:102F6000A742F4D1069800F026FAD2E701A800F0B3
:102F7000AFF98BE7082D0ED13068FFF779FF306885
:102F8000202105F003FC06E0306800F027FA3068E5
:102F9000182105F0FBFB09B0F0BD306829F0E5FD14
:102FA0003068182105F0F2FBF5E770B50400160053
:102FB0001D0001780830FFF761FF05232370A6602C
:102FC000E56001212000FEF751F870BD10B5040046
:102FD00000230370002200238260C3600A68D317B5
:102FE000FFF7E3FF01212000FEF740F8200010BDAD
:102FF000D0B5040016001F0001780830FFF73EFF2F
:1030000007232370A660E76001212000FEF72EF859
:10301000D0BD10B50400002303700022002382609D
:10302000C3600A684B68FFF7E3FF01212000FEF749
:103030001DF8200010BD10B504000021FEF716F8A1
:10304000217820000830FFF719FF200010BD70B56F
:1030500004000E00150008E021002800FEF74AF8E1
:103060002000FFF7E8FF10341035B442F4D12800F7
:1030700070BD0000F8B504000D0080231B059942C7
:1030800023D2836802689B1A1B1199421CD9476896
:10309000BF1A00291CD00022FEF75FFF060020683F
:1030A000616823003200FFF7D2FF2168A268521A3C
:1030B0001211002902D02000FEF73DFF2660F7190B
:1030C00067602D017619A660F8BD024822F098FCD1
:1030D0000026E4E714CF0410F8B5DE4657464E4606
:1030E0004546E0B504000F0093461F4A0121FEF754
:1030F00077F9060023689846636899464346FB1AA9
:103100009A4600282DD0002201002000FEF725FF5E
:1031100005005346E8185946FDF7ECFF23002A0046
:1031200039004046FFF793FF020010322300494662
:103130003800FFF78CFF0700A2684346D21A12112D
:10314000002B03D041462000FEF7F5FE25606760A6
:103150003601AD19A560F0BCBB46B246A946A046F3
:10316000F8BD0025D5E7C04624CF041010B50400F3
:103170004068A368984208D0FDF7BCFF636810332D
:1031800063602000FEF76BF810BD0A00010020000C
:10319000FFF7A2FFF5E770B5050016000C1A241121
:1031A00005E029003000FFF7E1FF1035013C002C5D
:1031B000F7DC300070BD10B5FFF7EDFF10BD70B546
:1031C0000E001500FEF772FD04003000FEF76EFDE4
:1031D00001002A002000FFF7EEFF70BD10B5FFF7D9
:1031E000EEFF10BDF0B5DE4657464E464546E0B50B
:1031F00083B006000C1E21D0456803689946EF1A7B
:103200003B119B4683685B1B1B11994213D9244ACF
:10321000FEF7E6F8011E019017D000223000FEF7FD
:103220009CFE82465744A0461BE000212800FEF782
:10323000B9F9013C1035002CF7D1756003B0F0BC32
:10324000BB46B246A946A046F0BD00239A46E9E730
:1032500000213800FEF7A6F901235B429C46E044BA
:1032600010374346002BF3D133005246290048461D
:10327000FFF7EDFEB2684B46D21A1211002B03D0B5
:1032800049463000FEF757FE534633605C44240144
:1032900054447460019B1B015344B360CEE7C046A5
:1032A00040CF041070B504000D0003E02000FFF7CC
:1032B000C2FE1034A542F9D170BD70B50400056896
:1032C00041688D4203D02800FFF7ECFF656070BDB8
:1032D00010B5040000686168FFF7E4FF2000FEF706
:1032E00030FE200010BD70B5040046680568731BF1
:1032F0001B1199420AD80CD209016D18B54208D0A9
:1033000031002800FFF7CEFF656002E0C91AFFF721
:1033100069FF70BD70B504000D000378002B0ED05E
:103320002378022B1DD1A068436802689B1A1B11E9
:103330009D420ED2A36818682D01401970BD02335A
:103340000370FDF7CDFFA06001212000FDF78EFE88
:10335000E6E7691CFFF7C7FF01212000FDF786FEA5
:10336000E8E736F0B3FE10B504001830FFF763FE4F
:10337000200029F0FAFB200010BD70B505000C00FC
:1033800008001030FFF7EFFF012221002800FEF7B0
:103390005FFF70BD70B505000C00002C0AD0E1681D
:1033A0002800FFF7F7FFA66821002800FFF7E5FFD8
:1033B0003400F2E770BD10B504008168FFF7EAFF42
:1033C0000023A360221DE2602261636110BD10B57D
:1033D00004008168FFF7DEFF200010BD10B5040077
:1033E000FFF7F5FF200010BD10B50400416800296B
:1033F00002D00068FFF7C1FF200010BD70B50400C7
:103400000D0001780830FFF739FD032323702800F1
:10341000FEF71AFEA06001212000FDF727FE70BD17
:1034200010B5040000230370002200238260C360F3
:10343000FFF7E4FF01212000FDF718FE200010BD7A
:1034400070B504000D0001780830FFF717FD032365
:1034500023702800FEF72AFEA06001212000FDF75E
:1034600005FE70BD10B50400002303700022002388
:103470008260C360FFF7E4FF01212000FDF7F6FD45
:10348000200010BD70B504000D0001780830FFF772
:10349000F5FC032323702800FEF73AFEA06001210B
:1034A0002000FDF7E3FD70BD10B50400002303709C
:1034B000002200238260C360FFF7E4FF01212000A7
:1034C000FDF7D4FD200010BD70B504000D0001789B
:1034D0000830FFF7D3FC032323702800FEF74AFED1
:1034E000A06001212000FDF7C1FD70BD10B50400F2
:1034F00000230370002200238260C360FFF7E4FF13
:1035000001212000FDF7B2FD200010BD70B50400C0
:103510000D0001780830FFF7B1FC03232370280069
:10352000FEF75AFEA06001212000FDF79FFD70BD4F
:1035300010B5040000230370002200238260C360E2
:10354000FFF7E4FF01212000FDF790FD200010BDF2
:1035500070B504000D0001780830FFF78FFC0323DD
:1035600023702800FEF788FEA06001212000FDF7EF
:103570007DFD70BD10B50400002303700022002300
:103580008260C360FFF7E4FF01212000FDF76EFDBC
:10359000200010BD70B504000D0001780830FFF761
:1035A0006DFC032323702800FEF798FEA060012124
:1035B0002000FDF75BFD70BD10B504000023037013
:1035C000002200238260C360FFF7E4FF0121200096
:1035D000FDF74CFD200010BD70B504000D00017812
:1035E0000830FFF74BFC032323702800FEF7A8FEEA
:1035F000A06001212000FDF739FD70BD10B5040069
:1036000000230370002200238260C360FFF7E4FF01
:1036100001212000FDF72AFD200010BD70B5040037
:103620000D0001780830FFF729FC032323702800E0
:10363000FEF7B8FEA06001212000FDF717FD70BD68
:1036400010B5040000230370002200238260C360D1
:10365000FFF7E4FF01212000FDF708FD200010BD69
:1036600070B50400150029F00EFB20001830290069
:10367000FDF740FD200070BD70B50D001600002262
:103680000121FEF7CFFD0400103032002900FFF7C2
:10369000E7FF200070BD30B585B004000D001100BB
:1036A0001A000290FFF7E8FF0300039010332A008E
:1036B00021006846FEF77FFB019B002B0BD0009991
:1036C0001A0002A8FEF713FC040002A8FFF78CFE04
:1036D000200005B030BD009CF7E7F0B5CE4600B540
:1036E00084B007000E001400994602920393110063
:1036F0003000FEF759FB0500321D019082420AD0CE
:1037000001001031200029F047FD002803DB3D6057
:1037100000233B7108E04B46220001993000FFF77F
:10372000BAFF386001233B71380004B080BCB94651
:10373000F0BD000010B5084B8B4205D3880040183F
:10374000800005F013F810BD044B994201D922F016
:103750001FF922F00DF9C04666666606CCCCCC0C8B
:1037600070B504000D00002201212800FFF7E2FFE0
:1037700025606060200070BD10B5080093009A18A5
:10378000910005F003F810BD10B504004168002950
:1037900003D000680122FFF7EFFF200010BD0000FA
:1037A00000B585B003AB01930290044B0360044B5A
:1037B000036001A8FFF7E8FF05B000BDD430051095
:1037C00088300510024B0360024B03604160704774
:1037D000A4300510BC300510F0B5C64600B584B065
:1037E00005000E00984601A902A8FFF7B9FF039C47
:1037F0000C4B236001236360A3600B4B2360270005
:103800000C3741463800FFF7DDFF002303932C609F
:10381000376002A8FFF7B8FF280004B080BCB846A4
:10382000F0BDC04688300510D430051010B5040036
:103830001300002204C00A002100FFF7CDFF200082
:1038400010BD10B584B004000A0001A902A8FFF75A
:10385000EDFF029B236000236360039A0393626081
:103860000293200004B010BDF0B5C64600B5254C4B
:10387000A54404000E0015001F00A8AB1B78984655
:103880000300083303600023436003720100A0A813
:10389000FFF7D7FFA09B9E93A1989F90002802D08E
:1038A000436801334360A99B3A009EA903A8FDF732
:1038B0008FFC9F98002801D0FCF7A0FDA19800285C
:1038C00001D0FCF79BFD002D12DB00230193009536
:1038D00043460122310003A8FEF780FF03A8FDF74D
:1038E0007FFB2000A2239B009D4480BCB846F0BD16
:1038F00000230193009343460022310003A8FEF702
:103900006DFFEBE778FDFFFF70B50400150029F0AF
:10391000BAF9296820001830FDF744FE200070BD78
:1039200070B50D00160000220121FEF77BFC04009B
:10393000103032002900FFF7E7FF200070BD30B5DE
:1039400085B004000D0011001A000290FFF7E8FF97
:103950000300039010332A0021006846FEF72BFA7B
:10396000019B002B0BD000991A0002A8FEF7BFFAAA
:10397000040002A8FFF738FD200005B030BD009C10
:10398000F7E7F0B5CE4600B584B007000E0014008E
:1039900099460292039311003000FEF705FA0500E4
:1039A000321D019082420AD001001031200029F01E
:1039B000F3FB002803DB3D6000233B7108E04B462E
:1039C000220001993000FFF7BAFF386001233B71F4
:1039D000380004B080BCB946F0BD30B585B00400F5
:1039E0000D000378002B0ED02378012B15D1A16890
:1039F0000023039303AB2A0001A8FFF7C2FF01983D
:103A0000283005B030BD01330370FDF7BBFCA0606A
:103A100001212000FDF72AFBE6E736F057FB10B541
:103A200088B0040007AA01A8FDF708FB01A920003F
:103A3000FFF7D3FF040001A829F097F8200008B091
:103A400010BD70B505000C1E08D00022FEF785FAE7
:103A50002860686024010019A86070BD0020F7E7A5
:103A600070B514000D1A0123012D09DDDBB2002B06
:103A700008D02A00010020003AF058F8601970BD03
:103A80000023F3E7012DF9D103782370F6E770B531
:103A90000E001500FFF7DAF904003000FFF7D6F941
:103AA00001002A002000FFF7DBFF70BD10B5FFF713
:103AB000EEFF10BD10B5FFF7F9FF10BDF8B504001B
:103AC0000E001700551A0ED410D000222900FEF760
:103AD000E5F8020022605519A56039003000FFF7B3
:103AE000E9FF6060F8BD024821F08AFF0022F1E79B
:103AF0005CCF041010B5081E02DB04F037FE10BDC9
:103B000021F036FF70B504000D1E07D00022FFF72C
:103B1000F1FF206060604019A06070BD0020F8E7F0
:103B2000704770B514000D1A0123012D09DDDBB2B9
:103B3000002B08D02A000100200039F0F7FF60199F
:103B400070BD0023F3E7012DF9D103782370F6E768
:103B500070B50E001500FFF7E3FF04003000FFF71B
:103B6000DFFF01002A002000FFF7DBFF70BD10B56A
:103B7000FFF7EEFF10BD10B5FFF7F9FF10BD70B5F0
:103B800004000D0049682B68C91A002303604360D4
:103B90008360FFF7B7FF286869682268FFF7EBFFCB
:103BA0006060200070BD70B504000D00FFF7E7FFF6
:103BB0002A696B69226163612B7E2376200070BDC8
:103BC00010B584B00400202004F0D0FD03AB0193B5
:103BD00002902100FFF7E7FF029C002C07D0002392
:103BE000029301A8FEF718FA200004B010BD034BA1
:103BF000034A0448044902F05DFEC046A49B041039
:103C000090CF041090910410974C000070B50500FF
:103C10000C0029F0EAFA210018312800183000F0D1
:103C2000A7F8280070BD70B50D0000220121FEF735
:103C3000F9FA040010302900FFF7E8FF200070BDFA
:103C4000F8B5CE46474680B581460C00150098462B
:103C500010311868FFF7E7FF07002378037000238F
:103C60008360C3604560E168002905D043460200D7
:103C70004846FFF7E5FFF860A5683E0001E0AD6843
:103C80002600002D17D02900103143461868FFF791
:103C9000CAFF04002B78037000238360C360B06008
:103CA0004660E9680029EAD0434602004846FFF72B
:103CB000C7FFE060E3E73800C0BCB946B046F8BDD6
:103CC00070B504000D0013008968021DFFF7B8FFEE
:103CD00003001A009B68002BFBD1E26003001A006E
:103CE000DB68002BFBD122616B69636170BD10B58D
:103CF00082B00400002303718360021DC260026170
:103D000043618B68002B04D0019001AAFFF7D8FF14
:103D1000A060200002B010BD10B50400FFF7E7FF5F
:103D2000200010BD10B584B00400182004F01EFD62
:103D300003AB019302902100FFF7EEFF029C002CE1
:103D400007D00023029301A8FEF71BF9200004B05E
:103D500010BD034B034A0448044902F0ABFDC046C2
:103D6000A49B0410DCD2041090910410974C000026
:103D700070B504000E000D780570002200238260EB
:103D8000C36001213000FDF771F9082D08D8AD009E
:103D90001A4B5B599F46B068FFF7C4FFA060E5600F
:103DA00001212000FDF762F9200070BDB06800F02D
:103DB00055FDA060E560F3E7B068FEF707F9A06085
:103DC000E560EDE7317AFF2083430B43A360E260B7
:103DD000E6E7B268F368A260E360E1E7B268F3681F
:103DE000A260E360DCE7B268F368A260E360D7E753
:103DF000B068FFF7E5FEA060E560D1E75C30051034
:103E000010B504000B000969002903D0FFF7B0FFCB
:103E1000200010BD1900FDF76DF9F9E770B5040039
:103E20000E00150005E021002800FFF7E9FF183417
:103E30001035B442F7D1280070BD0000F8B5050078
:103E40000E001700521AD3109C00E41821016418C8
:103E500021026418210464186400E418002A10DBAD
:103E6000002C11D000222100FEF777F802002A6012
:103E700024011419AC6039003000FFF7CFFF6860EF
:103E8000F8BD024821F0BCFD0022F0E75CCF041031
:103E900010B504000023036043608360FFF7CEFF8A
:103EA000200010BD30B585B004000D000C2004F0DA
:103EB0005DFC02AB009301902A68216803ABFFF719
:103EC000E7FF019C002C07D0002301936846FDF713
:103ED00031FA200005B030BD024B034A03480449C3
:103EE00002F0E8FCA49B041098D9041090910410EF
:103EF000974C0000F0B5C64600B58AB006000091A8
:103F000001921F0010AB1B7898460023037000221B
:103F100000238260C3600C00019B5D00ED18ED0082
:103F20004D19002329002000FDF7C1FE281A434245
:103F30005841C0B2002F05D14346022B0BD0434657
:103F4000012B0AD0002829D001233370FDF71AFA7B
:103F5000B060F76017E03800F1E74340DBB2002BB8
:103F6000F0D036F0B3F8210002A8FFF749FFB1689E
:103F7000049B1B689A68103306A8FFF7AEFB02A8E3
:103F8000FFF759F81834AC42EDD101213000FDF7AC
:103F90006DF830000AB080BCB846F0BD0223337023
:103FA0000894099509A908A8FFF77CFFB060ECE721
:103FB000F0B5C64600B5E64CA54404F0F9FDFA207C
:103FC000C00001F00CFFE34810F06AF9002801D0AE
:103FD00000F010FC10F044F913F03EFFDE4BDF4A16
:103FE000DF495A50DF4808F09FFA13F03FFFDE49DF
:103FF000DE4C2000FCF7DEFFFCF7C8FF0200499012
:10400000DB48210004F0C8FD0121002010F050F928
:104010000DF044F8D74B18600DF040F8D64B1860FF
:10402000D649D74A0CF038FE012200235242112112
:1040300040A813F0DFFF40A814F041FA012001F07E
:10404000CEFE102000F07EFDD024240680235B02EB
:10405000A36201220021102000F048FCC94B01227C
:104060000421102000F012FD0B2000F06BFD8023D6
:104070001B0163620A2000F065FD8023DB00A36260
:10408000002201210A2000F031FCBF4B0122042153
:104090000A2000F0FBFC00213CA8FDF783FABB4995
:1040A00006AD2800FFF7BCF900240A94B8490CA813
:1040B000FFF7D8F9109450950225519508273A003A
:1040C00050A91EA804F04CFB2AAE009501231E99AE
:1040D0001F9A3000FFF70EFF2E94AE4912AB9846A0
:1040E0001800FFF7E1F91694AB4918A8FFF7FEF99D
:1040F0001C944346529353953A0052A91EA804F0CB
:104100002FFB009501231E991F9A30A8FFF7F2FE9E
:104110003494A2491EAB98461800FFF709FA22947E
:104120009F4924A8FFF704FA2894434654935595D1
:104130003A0054A904A804F013FB00950123049944
:10414000059A36A8FFF7D6FE3A944E9603224F9270
:104150000095012331004AA8FFF7CCFE91493CA805
:10416000FFF75DFC2100FFF7D5F88F49FFF757FCFB
:104170004AA9FDF715F84AA8FEF75DFF3CAC2AAB4B
:104180009C4204D0183C2000FEF755FFF7E72AAC0C
:104190001EAB9C4204D0183C2000FEF74CFFF7E712
:1041A0001EAC12AB9C4204D0183C2000FEF743FF2B
:1041B000F7E712AC06AB9C4200D184E2183C200029
:1041C000FEF739FFF6E7794804F0B6FC6649674820
:1041D000FCF7F0FE7EE22AAC1EAB9C4204D0183CF9
:1041E0002000FEF728FFF7E71EAC12AB9C4204D07C
:1041F000183C2000FEF71FFFF7E76D4A13680133F4
:104200001360D0231B06802212015A61694C02A858
:10421000FCF7A2F8029A039B22606360664B0122BE
:104220001A700732002104A804F094FA04A940A8E7
:1042300013F0AAFF04A814F0AEF8084300D0D1E0B0
:104240005E4804F079FC5E4C02A8FCF785F8029801
:104250000399206061605B4B1A685B68801A994122
:1042600004F070F804000D00574B186804F026F8AD
:1042700002000B002000290003F091FF02000B0058
:104280000020524903F08BFF514F3860796051494B
:1042900012AC2000FFF708F9002516954E4918A822
:1042A000FFF7ACF91C95709402247194082270A950
:1042B0001EA804F055FA2AAE009401231E991F9AF5
:1042C0003000FFF717FE2E9544491EAB98461800A4
:1042D000FFF7A6F82295390024A8FEF79AFE289544
:1042E000434672937394082272A906A804F038FA20
:1042F000009401230699079A30A8FFF7FBFD349537
:104300006E966F9400940123310002226AA8FFF791
:10431000F1FD24493CA8FFF782FB0021FEF7FAFFDC
:104320002F49FFF77CFB224B1968FEF7F3FF6AA9C0
:10433000FCF736FF6AA8FEF77EFE36AC2AAB9C423D
:1043400000D1DDE0183C2000FEF775FEF6E7C04620
:10435000F0FDFFFF474200007C440020F0340510D0
:1043600004090000544D0020D0340510DC34051041
:104370008CDF04103CF40020F8F3002034440510D6
:104380001B100000DD02001071030010B8DF0410E4
:10439000C0DF0410DCDF0410E4DF0410ECDF0410E5
:1043A000F0DF0410F4DF0410FCDF041004E004105C
:1043B00054F40020182400208AF400207CE004102B
:1043C0003024002038240020CCF10020006071400F
:1043D0004024002028E00410DCE004106CE004100D
:1043E00074E0041004A813F0D6FF02000B00EA4C9E
:1043F000200004F0D1FB0023012204A940A813F0FF
:1044000049FF002204A940A813F0DCFF04F000F9E2
:10441000E24F38607960E24912AC2000FFF744F8BF
:1044200000251695DF4918A8FFF7C6F81C95669475
:1044300002246794082266A91EA804F091F92AAE06
:10444000009401231E991F9A3000FFF753FD2E950B
:10445000D5491EAB98461800FEF7E2FF22953900B9
:1044600024A8FEF7D6FD2895434668936994082250
:1044700068A906A804F074F9009401230699079A24
:1044800030A8FFF737FD34956496659400940123B6
:104490003100022260A8FFF72DFDC4493CA8FFF7B8
:1044A000BEFA0021FEF736FFC149FFF7B8FA012135
:1044B000FEF730FF60A9FCF773FE60A8FEF7BBFDB6
:1044C00036AC2AAB9C4204D0183C2000FEF7B3FD6A
:1044D000F7E72AAC1EAB9C4204D0183C2000FEF744
:1044E000AAFDF7E71EAC12AB9C4204D0183C20009A
:1044F000FEF7A1FDF7E7AF4A136801331360A2E6A8
:104500002AAC1EAB9C4204D0183C2000FEF793FD61
:10451000F7E71EAC12AB9C4204D0183C2000FEF71B
:104520008AFDF7E7A34A136801331360A24C02A87F
:10453000FBF712FF029A039B226063609F4B0022ED
:104540001A609F4B1B78002B14D19E4B1A685B6836
:104550009D4908684968801A994103F0F3FE9B4A17
:104560009B4B03F036FE00229A4B03F032FE9A4B2F
:10457000186059608A4912AC2000FEF795FF0025AB
:104580001695964918A8FFF75BF81C957A940224B3
:104590007B9408227AA91EA804F0E2F82AAE0094BF
:1045A00001231E991F9A3000FFF7A4FC2E957E4927
:1045B0001EAF3800FEF734FF2295874924A8FEF786
:1045C00028FD28957C977D9408227CA906A804F0F4
:1045D000C7F8009401230699079A30A8FFF78AFCD0
:1045E000349578967994009401233100022274A8BE
:1045F000FFF780FC6D493CA8FFF711FA0021FEF798
:1046000089FE6B49FFF70BFA6A4B1968FEF782FEC9
:1046100074A9FCF7C5FD74A8FEF70DFD36AC2AABF6
:104620009C4204D0183C2000FEF705FDF7E72AACB9
:104630001EAB9C4204D0183C2000FEF7FCFCF7E7C0
:104640001EAC12AB9C4204D0183C2000FEF7F3FCD9
:10465000F7E7584B00241C6001256D42019400943B
:1046600020232A003CA97EA8FFF7FEF87E997F9AB6
:104670005B4827F0B3FF27F0D0FE7EA828F075FA3C
:104680000194009420232A003CA92AA8FFF7ECF803
:104690002A992B9A8A181E941F94209400231EA8EE
:1046A000FFF70CFA1E9A1F9B9B1A4E484E49FCF7C7
:1046B00047FCFA20800001F092FB1EA8FCF7EDFDFC
:1046C0002AA828F052FA4948002112F0A7FB032833
:1046D00000D078E5FCF75AFC4990314912AC200033
:1046E000FEF7E2FE00251695414918A8FEF742FFA5
:1046F0001C955C9402245D9408225CA91EA804F019
:104700002FF82AAE009401231E991F9A3000FFF75C
:10471000F1FB2E9524491EAF3800FEF781FE22954D
:1047200049A924A8FEF752FC28955E975F940822B9
:104730005EA906A804F014F8009401230699079ACC
:1047400030A8FFF7D7FB34955A965B940094012369
:104750003100022256A8FFF7CDFB14493CA8FFF711
:104760005EF90021FEF7D6FD1149FFF758F9114B0C
:104770001968FEF7CFFD56A9FCF712FD56A8FEF703
:104780005AFC36AC2AAB9C4200D124E5183C2000F0
:10479000FEF751FCF6E7C0469CE0041048240020D8
:1047A00028E00410BCE004106CE00410F4DF0410F6
:1047B00074E0041054F4002038240020CCF10020D0
:1047C0008AF4002018240020102400209A40118B25
:1047D0001876583F0000E03F08240020FCE0041059
:1047E000C83700208C1900201B1000007C440020DA
:1047F00030E00410044804F09FF9012084239B005A
:104800009D4480BCB846F0BD74DF041070B5040050
:104810000E00150005E021002800FFF7A9FA10346A
:104820001035B442F7D1280070BD10B5FFF7EEFF88
:1048300010BD70B504000D0049682B68C91A091134
:104840000023036043608360FFF7FBF82868696812
:104850002268FFF7EAFF6060200070BD10B584B0E9
:1048600004000C2003F082FF03AB019302902100AF
:10487000FFF7DFFF029C002C07D00023029301A862
:10488000FDF78BFB200004B010BD034B034A044826
:10489000044902F00FF8C046A49B041020E1041064
:1048A00090910410974C000010B503689B689847DE
:1048B00010BD10B50C30FFF7F7FF10BD10B5830029
:1048C000084A944663441A68402462408034144085
:1048D0008022520113431C60C000034B9C4660447D
:1048E000416010BD04C001400040014080000B4BFE
:1048F0009C46604400290DD00823002A0CD00422D5
:104900001343026853400C221A4080235B01034387
:104910001A6070470023F0E70022F1E704C001406D
:10492000002909D08000094B9C46604480239B01EC
:10493000034302221A6070478000044B9C46604487
:10494000C0239B01034302221A60F4E704C0014024
:1049500070B50400D0231B061D680D4BAA00D35868
:10496000002B0AD0002803D0094BAD00EC5070BDDD
:1049700008490D2000F08CFBF6E70028F7D0044B27
:10498000AD00E850034900220D2000F079FAEEE76F
:1049900030440020AD4A001070B5D0231B061B68C0
:1049A000094C9D002C59204207D1074D9B00044320
:1049B0005C510D2000F064FA70BD044B044A0548B8
:1049C000CC2101F077FFC046D0F10020B8E60410FA
:1049D000143A0510E4E6041010B50400D0231B06B9
:1049E0001A680B4B9200D35818420BD00D2000F0E0
:1049F0004FFBD0231B061B6805499B005A58A24356
:104A00005A5010BD034B044A0448D62101F052FF0E
:104A1000D0F100201CE70410F0390510E4E6041082
:104A2000072303409B00C00899403C308000014BA5
:104A3000C150704700400140F8B507000C00160057
:104A40001D00FFF7EDFFFB089B00ED180720384025
:104A500080008440002E04D080239B012B431C60E7
:104A6000F8BDC0239B012B431C60F9E710B5D02390
:104A70001B061B68002B03D0024BFFF7DDFF10BDA8
:104A8000014BFAE7304101400041014070B514008C
:104A90001D00FFF7EBFF2800FFF75AFF002C00D1A5
:104AA00070BD01210D2000F097F9F9E7F0B5D64669
:104AB0004F464646C0B5D0231B061F681D4BBA00A3
:104AC000D3589846002F03D01B4B9946002623E06D
:104AD0001A4B9946FAE724090135002C1BD0330004
:104AE0000833AB4217D90F231A00224092462342C3
:104AF000F1D0134BBA00D2580123AB401342EAD194
:104B000051462800FFF78CFF4346002BE3D0514667
:104B10002800C047DFE708361D2E06D8F308083303
:104B20009B004A469C583500D7E7E0BCBA46B146E0
:104B3000A846F0BD30440020304101400041014012
:104B4000D0F1002010B501238340D02212069362D9
:104B500093610521FFF7B2FE10BD0000034B1B68F7
:104B600002201840431E9841C0B2704700C0064062
:104B7000EFF3108072B6034B1B68002BFBD0BFF322
:104B80005F8F70472C0100D0BFF35F8F024B002274
:104B90001A6080F3108870472C0100D0F8B5060029
:104BA0000C001500FFF7E4FFE308F718F15C07229B
:104BB0002240012393400B4205D1DBB20B433B70F3
:104BC000FFF7E2FFF8BD2100280001F00BFFF0B570
:104BD00083B00600019114001F00FFF7C9FF00E039
:104BE0000134BC420CD8E308F518F35C07212140DE
:104BF00001228A401A42F3D1D2B21A432A7001E04C
:104C000001246442FFF7C0FF002C02DB200003B048
:104C1000F0BD019B002BF9D0089801F0E3FE0000E5
:104C200070B505000C00FFF7A3FFE308EE18EA5C7F
:104C30000721214001238B40134204D09A43327054
:104C4000FFF7A2FF70BD034B034A0448332101F074
:104C500031FEC04648E70410483A051068E70410E2
:104C6000002307E0054A9A189200BFF35F8F0021E6
:104C7000116001331F2BF5D97047C0464000003446
:104C8000054A1078431CDBB21370172B02D91300AE
:104C900010221A707047C0469A19002010B582B0D1
:104CA0000100054C054B00931F2318222000FFF73D
:104CB0008EFF02B010BDC04640440020A4E704109F
:104CC000074B9B68103080001950BFF35F8FBFF314
:104CD0005F8F044B0021196082F310887047C04633
:104CE00000ED00E0240100D010B50388DA0A1C2A88
:104CF00005D15B055B1502335B00C01810BD034B8B
:104D0000034A0448B12101F0D5FDC046C0E70410B4
:104D1000AC3A0510D8E7041010B5091A0B1F0A4A5F
:104D200088180A4A904208D8C90706D45B105B0568
:104D30005B0D0748184380B210BD064B064A074872
:104D4000A32101F0B7FDC046FC070000FE0F0000E4
:104D500000E0FFFF10E80410A03A0510D8E70410A7
:104D600010B5091A04394A08090B08D14905490D3B
:104D7000064B0B430380064B1343438010BD054B8A
:104D8000054A0648AB2101F095FDC04600F0FFFF43
:104D900000F8FFFF40E80410743A0510D8E704104B
:104DA00001238340034A10681840431E9841C0B253
:104DB0007047C04600E100E0002904D0034B1860B2
:104DC000034B18607047034B1860FBE780E200E07C
:104DD00000E100E080E100E010B50123834018000D
:104DE000FFF7EAFF10BD000001238340014A136072
:104DF0007047C04600E200E0024B9B681030800024
:104E0000C058704700ED00E010B5FFF7F5FF00282F
:104E100005D0054BC01A2F2803D8012010BD002053
:104E2000FCE70020FAE7C0469C19002070B504009A
:104E30000D00EFF3108672B60C4B1B68002BFBD0F5
:104E4000BFF35F8F2000FFF7D7FF094B984201D0D7
:104E5000A84205D1320029002000FFF731FF70BDC4
:104E6000044B054A0548862101F024FD240100D0A9
:104E7000CD01001050E80410D43A0510D8E7041012
:104E8000F0B5DE4657464E464546E0B589B0814608
:104E900001911500EFF3108A72B66D4B1B68002B61
:104EA000FBD0BFF35F8F6B4B00269E57002E41DB7C
:104EB0007400A419A400684824180622A256654B61
:104EC0001A70664B9A684B4610339B00D35898462D
:104ED0001F00181A2F2839D9614B984530D105AFDA
:104EE000604B3B80604973009B46981980005A4B89
:104EF000984640440230FFF70FFF78805B4BBB8041
:104F0000FF23BB71FD71019B079333005B449B0042
:104F1000434407CF07C301231C43A04652464146E2
:104F20004846FFF7CDFE09B0F0BCBB46B246A946E5
:104F3000A046F0BD4E4B4F4A4F48D72101F0BAFC76
:104F40004E4B4C4A4C48DE2101F0B4FC01380C2198
:104F500002F0E0FE002912D101239F43BB463B0033
:104F60000027DA79AA4211D90621595600290CDB0B
:104F70004A005218920038491F008B18F1E7404B45
:104F80003C4A3D48EA2101F095FC1F00002F2ED03D
:104F900005AB3C4A1A80813A5A800623FB5602939D
:104FA000002B17DA384805AB9B469880029A9A7115
:104FB000DD71019A0792381D2100FFF7ADFEB88020
:104FC000BE71254B7200921992009B185A4613CA63
:104FD00013C3A3E7381DFFF787FE01007000801997
:104FE00080001D4BC0180430FFF796FEDBE705AFCD
:104FF0001C4B3B801C49730002939B199B00164A73
:1050000090461A0042440392901CFFF785FE788078
:10501000039A101D5946FFF77FFEB8801B4B5A4676
:105020004146521A524153431B0DBB71FD71019A07
:105030000792029B9B199B00434407CF07C3114B68
:105040005A461380813B538001231C43A04665E7E9
:10505000240100D087F400209C19002000ED00E01E
:10506000CD01001000A1FFFFCC19002001BDFFFF02
:1050700088E80410BC3A0510D8E70410B0E8041022
:10508000D8E804100148000001BD0000AAAA0000F1
:10509000F0B5CE46474680B583B006000D00EFF36D
:1050A000108872B64F4B1B68002BFBD0BFF35F8F8D
:1050B0004D4B9A6834001034A300D7584B4B9F4295
:1050C00007D0AF4200D18BE00197494BFB1A2F2B41
:1050D00009D9424639003000FFF7F2FD03B0C0BCE9
:1050E000B946B046F0BD3000FFF75AFE81460021B8
:1050F0003000FFF771FEBFF35F8FEFF305810029EA
:1051000001D08C4211D10123019C9C430020A36853
:10511000AB4212D00622A256002A0DDB53009B1888
:105120009B00334A2000D418F1E7324B324A362133
:105130003248FF3101F0BEFB2000AB4249D10625C9
:105140006557002D2BDB2A4B6A00521992009B18E1
:105150009A68A260DA79E2719B795BB2A371002B45
:105160000FDA2748A080224B6A00521992009B1840
:10517000244A11789971157049463000FFF72CFECA
:10518000A7E7680040198000194BC0180430FFF7EA
:10519000ABFD0100231D1800FFF7BEFDE2E700296B
:1051A00012D100280ED0FF238371174B838015493D
:1051B0000B78A3710E4A154BA41A644163431B0D6F
:1051C0000B70D9E7094FF2E71149201DFFF7C8FD21
:1051D000D2E7104B084A6A210848FF3101F06AFB08
:1051E000024F76E7240100D000ED00E0CD01001071
:1051F0009C1900204CE904108C3A0510D8E70410E3
:1052000001BD000087F4002001BDFFFFAAAA000035
:10521000D61900207CA8041070B5012202432E4B41
:10522000D31A2F2B28D8EFF30583002B2BD0EFF3C5
:10523000108C72B6294909680029FBD0BFF35F8F33
:10524000254C274905002D1B6D416943090D4CB2C2
:10525000244989689B00C95891421BD00021032929
:1052600032D81D4B4A00521892009B189B795BB2B2
:10527000A3421FD00131F2E71B4B1C4AC7211C4837
:10528000490001F017FB1B4B184A92211848FF31C7
:1052900001F010FB134A92681749D150174B1A7846
:1052A00082711C70BFF35F8F0C4B00221A608CF36D
:1052B000108870BD084B4A005518AD005D19FF26D7
:1052C000AE710F4AAA80E9E70E4B084AD12108487F
:1052D000490001F0EFFAC0469C190020240100D0DB
:1052E000AAAA000000ED00E080E90410583A051079
:1052F000D8E70410A8E90410CD01001087F40020BD
:1053000001BDFFFFB4E904100022044B02E0044990
:1053100002C30132072AFAD97047C04600E400E010
:105320008080808010B582B00100074C074B00934D
:10533000052300222000FFF74AFC002801DB1F2381
:10534000181A02B010BDC04695F40020BCE9041044
:1053500070B504000E001500FFF792FC010020005C
:1053600000F006F8A680E580BFF35F8F70BD0000F7
:10537000024B9C4661448900016070474000003444
:1053800010B5002B02DB0260436010BD024B034AE4
:1053900003483F2101F08EFA00900410143B0510E1
:1053A0005490041070B582B0060014001D00FA225B
:1053B000920000230698002103F080F802000B0001
:1053C00012196B41002B09DB6846FFF7D9FF009AE1
:1053D000019B32607360300002B070BD0122524206
:1053E000004BF1E7FFFFFF7F10B582B0040000F033
:1053F00087FD02000B006846FFF7C2FF009A019B81
:1054000022606360200002B010BD30B585B004009A
:105410000D0002A8FFF7E8FF029A039B0095200009
:10542000FFF7C0FF200005B030BD10B50400FFF746
:1054300027FC01002000FFF79BFFFF232371BFF330
:105440005F8F10BD10B50400FFF71AFC01002000AB
:10545000FFF78EFFFF23237100236371BFF35F8F7C
:1054600010BD0000034B9C46614489000160BFF3FE
:105470005F8F70474000003410B504000120FFF733
:105480000DFC01002000FFF7EDFF10BD084B5B6A2B
:10549000994209D8064A926A824207D2994201D0BB
:1054A000012002E0002000E0002070470120FCE71E
:1054B0000040054010B500290AD003681B7B8B42D1
:1054C00006D38068054B9C4661440901401810BD15
:1054D000034B044A04483C2101F0ECF9FFFFFF0FA5
:1054E00060EA0410FC3B051084EA0410F8B50400DF
:1054F0001700FFF7DFFF0668456839002000FFF757
:10550000D9FF026843680120AB4201D802D00020D5
:10551000C0B2F8BDB242FBD8F9E7000010B5002BCD
:1055200002DB0260436010BD024B034A03483F2187
:1055300001F0C0F900900410C83B0510549004100D
:1055400010B582B004000498059912184B41002B45
:1055500009DB6846FFF7E2FF009A019B2260636067
:10556000200002B010BD01225242014BF1E7C046BB
:10557000FFFFFF7F10B5002908D0037B8B4205D3C6
:1055800000684B005B18033BC01810BD024B034A78
:105590000348682101F08EF9B4EA0410A43B051019
:1055A000D0EA041010B5437B8B4201D1012010BD1D
:1055B000FFF7E0FF8378002B01D10020F7E70120FF
:1055C000F5E770B50400857B002D01D1280070BD82
:1055D0002900FFF7CFFF4378A373002B00D1E373BB
:1055E0000023837043700370F0E70000F8B50600F5
:1055F0000C001500FFF7BEFF0700002C0DD0002D9A
:1056000011D0AC4215D029003000FFF7B3FF8470F1
:105610003B78002B13D13D70F8BD0A4B0A4A0B486A
:105620006F2101F047F90A4B074A0848702101F041
:1056300041F9084B044A0548712101F03BF94370D8
:105640003D70E9E714EB0410803B0510D0EA04102C
:1056500020EB04102CEB041070B506000D001400B4
:10566000002914D0002A14D0436880689847002885
:1056700006D0220029003000FFF7B8FF280007E01D
:105680002A0021003000FFF7B1FF200000E01000E9
:1056900070BD0800FCE7000070B504000D1E0CD0C2
:1056A000FFF768FF0023837043700370617B2A005B
:1056B0002000FFF7D1FF607370BD034B034A04481D
:1056C000A52101F0F7F8C04644EB0410943B051007
:1056D000D0EA041070B504000D1E0FD0FFF762FF72
:1056E00000280BD1E17B00290ED1A37B002B03D135
:1056F000E37B002B0DD1A573E57370BD084B094A00
:105700000948F62101F0D6F82000FFF733FF457075
:10571000EBE7064B034A0448FB2101F0CBF8C046F7
:1057200048EB0410703B0510D0EA04106CEB041039
:1057300010B5002907D003681B7B8B4203D3C068D8
:105740000139401810BD034B034A0448412101F0C0
:10575000B1F8C04660EA04105C3B051084EA04100E
:1057600070B505000C00080000F0C4FC09492000D9
:1057700000F004FCFFF784FA074B9C46604480006D
:1057800068602C75D0231B061B786B75034BA40037
:10579000E55070BDAD58001040000034B8F1002055
:1057A0000A4B1A68EFF3108172B61368002BFCD015
:1057B000BFF35F8F054B1B68BFF35F8F00221A603A
:1057C00081F3108840BF002000217047F4F30020CF
:1057D00010B582B0040000F093FB02000B00684695
:1057E000FFF79CFE009A019B22606360200002B0DC
:1057F00010BD70B584B0040016001D0002A8FFF7AC
:10580000E7FF029A039B009601952000FFF798FEA0
:10581000200004B070BD0000F0B583B00700019215
:105820001D000AAB1C780BAB1E78002C0BD0006857
:105830002100FFF7B7FE002809D0194B194A1A4872
:10584000672101F037F80068FFF7BBFE0400002C69
:1058500002D1200003B0F0BD21003800FFF72AFE7E
:10586000019B03604560089B8360099BC3603868A7
:105870002100FFF711FFA042EBD1387D019A2B00E8
:1058800000F0C4FB051E01D0002E04D00C9B002BA1
:10589000DFD01D70DDE73868210000F071FDF5E70D
:1058A00080EB0410B03B051084EA0410F0B5DE462E
:1058B00057464E464546E0B58FB00B900021784BD9
:1058C0008200D458894682E029002000FFF7F2FDCB
:1058D000804602684368921BBB41002B09DD4346AA
:1058E0001A685B680B9800F091FB0023984600262D
:1058F00089E0002B01D1002AF1D10021584600F0A7
:1059000035FD0700A84215D143461A685B68089226
:10591000099343469E68DB689846002E10D0290004
:105920002000FFF705FF037899461B021F432761FC
:10593000002068E05B4B5C4A5C488E2100F0BAFFB7
:105940005B4B594A5948922100F0B4FF2369002B60
:1059500077D0BB4219D106980799002342428B4168
:1059600000920193089A099B0CA8FFF7E9FD0C9A95
:105970000D9B002104910131039102954146019153
:1059800000962000FFF748FF16E04A4B464A47487A
:10599000A12100F08FFF069A079B002B01D1002A5E
:1059A00052D120682900FFF795FE29002000FFF75B
:1059B000BFFE037801330370002323616268BFF3E5
:1059C0005F8F13608AF310880120002861D00CA833
:1059D000FFF7FEFE0C9E0D9F002200230892099304
:1059E0006268EFF3108A72B61368002BFCD0BFF325
:1059F0005F8F23689B465D7B002D00D064E700230A
:105A00009846002600206368BFF35F8F00221A606B
:105A10008AF31088002ED8D04B461F022F434146F0
:105A20003800B047069007916268EFF3108A72B6AB
:105A30001368002BFCD0BFF35F8F079B002B00DAAD
:105A400084E7079B002BA6DD2369002BA9D0BB426E
:105A500019D10CA8FFF7BCFE0C9A0D9B069807996C
:105A6000009001910CA8FFF76BFD0C9A0D9B002193
:105A70000491013103910295414601910096200065
:105A8000FFF7CAFE98E70B4B074A0848A42100F02D
:105A900011FF0FB0F0BCBB46B246A946A046F0BD10
:105AA000B8F10020A8EB0410E03B051084EA0410D4
:105AB000C0EB0410CCEB041010B50C4B5B68002B52
:105AC00004D00B480A21FFF753FC10BD074C094ACC
:105AD00020682300102100F0B4FB032000F004FA3A
